S016000062745F736F635F626C696E6B795F322E733337EB
S214012000C00A0020993E01008FCD02008FCD02004C
S214012010C1DE02008FCD02008FCD02008FCD0200FF
S2140120208FCD02008FCD02008FCD02008FCD020032
S2140120308FCD020054600300E9CB02008FCD020071
S2140120408FCD02008FCD02008FCD02008FCD020012
S2140120508FCD02008FCD02008FCD02008FCD020002
S2140120608FCD02008FCD02008FCD02008FCD0200F2
S214012070E98701008FCD02008FCD0200193B0100D8
S214012080B1CC02008FCD02008FCD02008FCD0200B1
S2140120908FCD0200C94601008FCD02008FCD020010
S2140120A08FCD020045480100214801008FCD020076
S2140120B08FCD0200B19402008FCD0200859E0200F2
S2140120C059510300555103008196020065510300E2
S2140120D05D5103005D9E020061510300C59E020032
S2140120E0157A0200E57B0200319F02008FCD0200C7
S2140120F0A7DA02008FCD02008FCD02008FCD02003D
S2140121008FCD02008FCD02008FCD02008FCD020051
S2140121108FCD02008FCD02008FCD02008FCD020041
S2140121208FCD02008FCD02008FCD02008FCD020031
S2140121308FCD02008FCD02008FCD02008FCD020021
S214012140013800D0FCE7704770B505463E4C8AB0B2
S21401215020B10023008823600BF0E0FA3B4822F010
S21401216062FB3B4E3B4B304633603B4B73601FF08C
S21401217053F80021304611F007FC31A3D3E90023C0
S214012180A062C4E906231FF04FF8D4E906231943D9
S21401219010434FF0FF33C4E90601CDE900014FF0CB
S2140121A0FF32A06A22F0A6FB02224FF0FF31A06A9E
S2140121B022F0A5FB01200BF071F84FF4007300220A
S2140121C02649A06A22F0F3FBB0F5007F36D1002342
S2140121D09422CDE9073309933C23CDE903320593D5
S2140121E09623A06A03A9069311F01CFD25B3287C4B
S2140121F00BF0B2FC0546E0B9A06A22F0B9FC0BF080
S21401220053FC0BF02DF820B14FF48070002109F03B
S21401221009FF0BF035F820B14FF40060002109F0FA
S21401222001FF012011F004FC0D4A0E49A06A1EF0C0
S214012230F1FF28460AB070BDFF20D9E70725F8E769
S21401224009D501552000000038110020690345EC2E
S2140122506C25002001D901006025002060230020A4
S214012260BD110300FD1103002DE9F04F1F460023A9
S214012270044688464FF0000A4FF0000B2DED028B06
S2140122809DB018939F4B13921B681846059323F035
S21401229007F80546CDF85C80179B1A782B2A4ED096
S2140122A03BD80D2A34D8082A34D8002A3ED0002339
S2140122B00A93179E3378302B40F0B080737803F082
S2140122C0DF03582B68D10A9B17A902972046019372
S2140122D018AB8D4A009319AB18F082FE10F0070771
S2140122E0054605D0062F2CD10136002317960A93F2
S2140122F0139B002B40F08E850A9BEBB152460BF1E7
S214012300004343EC102B1DB0BDEC028BBDE8F08FF3
S214012310202ACCD101331793BEE72D2AC7D101223B
S2140123200A925A1C17925B78002BC2D1139BCDF8E8
S2140123305C80002B40F06C8552465B46E1E700224C
S214012340EEE7189A3AB135211AA823F040FA1899FF
S214012350204619F017F9013F042F06D8DFE807F0E9
S2140123600A0314170A00DDE91AAB2807C0D54BF09B
S214012370004BBDE7DDE91AA3199A23F4801302F294
S214012380334243EA025BF0E7DFF880B1EDE76FF036
S214012390004B4FF0FF3AE8E7179B5A1C17925B7801
S2140123A0302BF9D0002BA3D001234FF00009049362
S2140123B00A22179B4F46CDF81C900893179806786B
S2140123C0A6F13003D9B209292AD92A46059923F05C
S2140123D01EFBA0B3002032463D4603460590652A03
S2140123E001D0452A18D11DB9049A02439ED0002572
S2140123F0DDF85C8008F10102179298F801202B2A7B
S21401240075D02D2A7BD04FF0000CA2F1300109299E
S21401241040F28280CDF85C8000269DE00023C4E770
S214012420082F00F1010007F10107D4BF079902FB4D
S21401243009391790DCBF02FB01330793BEE7179BF0
S2140124405A1917925A5D002F36D03D460590A2F1D3
S2140124503003092B12D90123C1E7179B01305A1CFF
S21401246017925A78302AF8D0A2F13103082B00F2DD
S214012470D68405900020179B05460893303A00F154
S214012480010313D0059900EB050E19442B4605915F
S2140124900A21734512D12B180135082B05441CDC83
S2140124A007990A2303FB012307930023179A18466B
S2140124B0511C17915278CAE73846D3E7082B04DC3B
S2140124C0079E4E4307960133E3E703F1010CBCF187
S2140124D0100FD8BF01FB09F9F5E7102DDCBF0A2361
S2140124E003FB0929E1E70023059301237CE74FF06D
S2140124F0000C08F10202179298F8022085E74FF0C7
S214012500010CF6E79CAD0300C8AB03000000F07FAA
S214012510179A511C17915278302AF9D0A2F131013D
S21401252008293FF679AFA2F1300E179A0692179A4C
S214012530511C17915278A2F13006092E37D9069E02
S214012540891B44F61F66082902DC7645A8BF764635
S214012550BCF1000F00D07642002D4DD10499014305
S2140125607FF4C6AE002B7FF4E1AE692A27D024DCC7
S214012570492A24D04E2A7FF4D9AE9F4917A822F0C3
S2140125809EFF00283FF4D2AE179B1B78282B2DD137
S2140125901AAA9A4917A822F0A6FF052826D11B9B3E
S2140125A0DDF868A043F0FF4B4BF4E00BA0E60A21F0
S2140125B001FB0E2EAEF1300EB9E76E2ADBE790492D
S2140125C017A822F07CFF00283FF4B0AE179B17A88F
S2140125D08C49013B179322F072FF10B9179B013308
S2140125E01793DFF830B24FF0000A81E6864800F014
S2140125F03FFC5BEC10AB7BE6059B002F08BF2F462C
S214012600102D0798A6EB0303A846A8BF4FF01008A5
S214012610069319F073FF092D82468B4613DD7B4B1B
S21401262003EBC80353E9122319F0E2FF82468B46F7
S214012630484619F063FF02460B465046594619F0C4
S21401264021FE82468B460F2D38DC069B002B3FF47D
S2140126504FAE24DD162B0BDC6C49524601EBC30151
S2140126605B46D1E9000119F0C3FF82468B463FE67F
S214012670C5F12503069A934220DBC5F10F05634C8D
S21401268052465B4604EBC501D1E9000119F0B0FFE3
S214012690069B5D1B04EBC504D4E90023E3E7069B18
S2140126A016330BDB059B504659469E1B574B03EBD7
S2140126B0C606D6E900231AF0C5F8D6E7A5EB080842
S2140126C0069B9844B8F1000F74DD18F00F030AD08A
S2140126D04E49524601EBC3015B46D1E9000119F0B0
S2140126E087FF82468B4638F00F084FD0B8F59A7FA1
S2140126F022DD00252E46079505952223DFF814B125
S2140127004FF0000A2360079B002B3FF4F1AD1899A8
S214012710204618F037FF0599204618F033FF31465A
S214012720204618F02FFF0799204618F02BFF294660
S214012730204618F027FFDBE5354B4FEA28185046B0
S2140127405946049300239946B8F1010F21DC0BB1D9
S21401275082468B462E4BABF1547B524603EBC9099E
S2140127605B46D9E9000119F043FF2A4B0A46824627
S2140127700B4029498B42BCD8A1F580118B4286BFFC
S214012780DFF898B04FF0FF3A02F1547B0023049330
S21401279083E018F0010F05D0049BD3E9002319F05C
S2140127A027FF0123049A09F101094FEA6808083254
S2140127B00492C9E7EAD0C8F1000818F00F020AD05F
S2140127C0124B5046594603EBC203D3E900231AF0D5
S2140127D039F882468B465FEA2818D7D0B8F11F0F22
S2140127E01EDD00252E460795059522234FF0000A8B
S2140127F04FF0000B236086E7C5AB0300DCAB03009C
S214012800BCAB0300BFAB0300305C030038AE030073
S21401281010AE03000000F07F0000A07CFFFFEF7FFA
S21401282018F0100350465946DFF8A89318BF6A23DC
S2140128300493002318F0010F04D0D9E9002319F0FE
S214012840D7FE01235FEA680809F10809F2D10BB146
S21401285082468B46049BC3B1CBF30A525946C2F15A
S2140128606B03002B11DD1F2B40F32181342B4FF01E
S214012870000ADBBFC2F14B024FF0FF334FF05C7B27
S21401288003FA02F2D8BF02EA010B002200235046E7
S21401289059461AF015F90028A3D1079B3A4608991C
S2140128A0204600932B4618F0D7FE079000283FF4E9
S2140128B020AF059B00259E1B069B002BB4BF33460D
S2140128C000232E460C93069B23EAE3731293079B81
S2140128D02046596818F016FE059000283FF40DAF03
S2140128E0079B0C301A6903F10C010232920022F0A8
S2140128F066FC1AAA19A920464BEC10AB19F088F908
S21401290018904BEC18AB00283FF4F7AE0121204697
S21401291018F0ECFE064600283FF4EFAE199B04992A
S214012920002BA3EB0108A9BF0C9A129A03EB02092C
S214012930129FB8BFD71A1A9AA14B9044B8BFDDF8B8
S2140129403090C2F1360208F1FF38984580F2C38014
S214012950A3EB080301211F2BA2EB030200F3AE80B9
S21401296001FA03F30D930023089309EB0208049B75
S2140129701744C1451F444B46A8BF4346BB42A8BFA8
S2140129803B46002BC2BFA8EB0308FF1AA9EB0309BD
S2140129900C9B002B17DD31461A46204618F064FFC3
S2140129A0064600283FF4A9AE0146189A204618F0BC
S2140129B0B3FE0B9000283FF4A0AE1899204618F0FD
S2140129C0E1FD0B9B1893B8F1000F00F38980069B7D
S2140129D0002B08DD129A2046059918F045FF059050
S2140129E000283FF48AAE002F08DD3A4605992046B6
S2140129F018F094FF059000283FF47FAEB9F1000F60
S214012A0008DD31464A46204618F088FF064600286B
S214012A103FF473AE059A2046189918F0EFFF054665
S214012A2000283FF46AAEC36831460B930023C360A7
S214012A3022F07EFE00285DDA0B9B53EA0A037FD163
S214012A40CBF31303002B7BD12BF000431B0D1B058F
S214012A50B3F1D66F74D96B6913B92B69012B6FDD8E
S214012A6029460122204618F059FF3146054622F034
S214012A705FFE002864DD04995B46524A00297FD038
S214012A8002EA0B01B1F1D66F7ADCB1F15C7F7FF718
S214012A90ACAE4D4B50465946002219F0A9FD0B46E7
S214012AA082468B46034304BF222323602FE64FF062
S214012AB0FF3202FA03F303EA0A0AE6E6C8F17F48A0
S214012AC00D9108F57F0808F57B4808F1E20801FA40
S214012AD008F3089349E70023089301230D9344E77D
S214012AE042461899204618F019FF189000287FF4DE
S214012AF06EAF02E65F466FD10B9ACBF3130342B378
S214012B00324A934228D1049B5146EBB12D4B4FF0EC
S214012B10FF323B40B3F1D46F19D81B0DC3F16B03E1
S214012B2002FA03F3994217D1294B9F4202D1013190
S214012B303FF4E3AD234B4FF0000A3B4003F5801B07
S214012B40049B002BA5D1E2E54FF0FF33EAE71346DD
S214012B50E8E753EA0A038ED0089BDBB13B42EFD08D
S214012B600B9B5046049A5946C3B122F0B7FB024666
S214012B700B4651EC180B19F085FB82468B46DFE7B6
S214012B8013404FF0FF3AA3F580136FEA135B6FEA29
S214012B900B5BD5E70D9B13EA0A0FE0E722F09EFBDD
S214012BA002460B4651EC180B19F06AFB0022002373
S214012BB082468B4619F084FF0028C1D015E600BF77
S214012BC002FCFFFF0000F07F00005039FFFF0F00FE
S214012BD0FFFFEF7FF0AB03003146284622F0C4FD2D
S214012BE000224FF0804310EE100A59EC108B494634
S214012BF019F07AFF00287AD00B9B002B4AD00022CE
S214012C00934B4FF00008DFF84892CDE90823914B2B
S214012C103B400D930D9A904B9A4240F0B080A7F13D
S214012C20547BDDE908014BEC10ABCDE9080118F047
S214012C3075FFDDE9080153EC102B19F0D9FC52465B
S214012C405B4619F01FFB0B4682498246834A1940B0
S214012C50914260D918EE903A02F15472934204D12F
S214012C6018EE103A01333FF448ADDFF8FCB14FF0EF
S214012C70FF3A1899204618F085FC0599204618F069
S214012C8081FC3146204618F07DFC2946204618F086
S214012C9079FC1CE6BAF1000F1BD1CBF31303F3B991
S214012CA000226B4B4046494619F014FFD0B9404606
S214012CB0494600226A4B19F09BFC8046894609F179
S214012CC00043CDF850801593DDE91423CDE90823A0
S214012CD09DE7BAF1010F02D1002F3FF486AD002225
S214012CE0604B8EE74FF00008DFF87491E7E75C4B26
S214012CF040464946002219F07BFC0B9B80468946DC
S214012D0033B901F100430E900F93DDE90E23DDE7A1
S214012D10CDE90E89F9E703F1547B049B002BA8D17A
S214012D202BF000430D9A1B0D1B059A42A1D140467C
S214012D30494619F017FF19F02DFC02460B4640468E
S214012D40494619F09DFACBF313030B9A804643EAE2
S214012D500A038946134355D035A3D3E9002319F056
S214012D60B9FE00287FF4D3AC4046494632A3D3E9E6
S214012D70002319F0CDFE00283FF47BAFC7E4049B87
S214012D8033B30D9BB3F1D46F22D8404649462CA3EA
S214012D90D3E9002319F0A8FEA0B14946404619F030
S214012DA0C1FE012838BF012019F0A8FB0B9B804605
S214012DB0894623BB01F1004310901193DDE91023EE
S214012DC0CDE90823099B0D9A03F1D6639B1A099353
S214012DD0B0EE480AF0EE680ADDE90801CDE908011F
S214012DE018F09CFEDDE9080153EC102B19F000FCED
S214012DF053EC182B19F046FA82468B468DE7CDE93F
S214012E001089DBE710A3D3E9002319F063FEB2E7CC
S214012E1000230A93179B139A1360FFF76DBA652A6E
S214012E203FF461AB452A3FF45EAB0123FFF796BB47
S214012E309535A094FFFFDF3F35E5AF350000E03F55
S214012E400000C0FFFFFFDF419535A094FFFFCF3F95
S214012E500000F03F0000F07F0000E07FFFFF9F7C56
S214012E600000E03F0000F0BFFFFFEF7F0000000022
S214012E709FED010B704700BF000000000000F87FC7
S214012E8010B5054C237833B9044B13B1044800E060
S214012E9000BF0123237010BD88130020000000002E
S214012EA040AF030008B5034B1BB10349034800E0DC
S214012EB000BF08BD000000008C13002040AF0300D7
S214012EC0A3F5803A704700BF174B002B08BF134B82
S214012ED09D46FFF7F5FF00218B460F461348144A1F
S214012EE0121A22F093F90E4B002B00D098470D4B87
S214012EF0002B00D098470020002104000D000D484B
S214012F00002802D00C4800E000BF17F091FA20001C
S214012F10290019F05DFE17F077FA00BF00000800DF
S214012F200000000000000000C00A0020D0100020B1
S214012F30442C00200000000000000000154B37B5AF
S214012F40186819F039FF08B1012820D18DF807005B
S214012F50012200211D200DF107030DF03DF8044666
S214012F6090B9032000F0A0FE70B10B4D0B49286804
S214012F701AF0E9FD19F0DAFE19F0D9FE9DF80720DE
S214012F80074928681AF0DFFD204603B030BD01244A
S214012F90FAE700BFEC0A002024140020185B0300A7
S214012FA01D5B030030B585B00DF10B050122002134
S214012FB01D20009503AB0CF0DDFF044668B92A46D8
S214012FC001211D200DF036F8044630B9044B9DF85A
S214012FD00B20044918681AF0B6FD204605B030BD2E
S214012FE024140020375B030030B54FF4FA65002443
S214012FF087B069460A4800958DF8044001F0A0F8AC
S21401300002A9084802958DF80C4001F099F804A928
S214013010054804958DF8144001F092F807B030BDCC
S214013020C00A0020C80A0020D00A002008B50A4BB2
S214013030186819F0CAFEFFF7D7FF084801F002F931
S214013040074801F0FFF8074801F0FCF8BDE8084022
S214013050054801F0F7B800BFEC0A0020E40A00209A
S214013060C00A0020C80A0020D00A002038B5154B37
S2140130701A7832B300221A70FFF760FF0446D8B1FF
S214013080012000F011FEE0B10F4D104928681AF03A
S2140130905AFD19F04BFE19F04AFE23460C490D4A1B
S2140130A028681AF050FD204600F044FE28680A49B8
S2140130B0BDE838401AF047BDFFF774FF0446002804
S2140130C0DED138BD3F2B002024140020535B0300C3
S2140130D05B5B0300585B0300305C030073B5164668
S2140130E08DF8071017F01AFC0DF1070104460025AC
S2140130F017F028FC28B9204617F0C6F9054802B093
S21401310070BDB542FBD000200DF1070117F01AFC87
S2140131100135EFE7305C030038B500222DED028B58
S2140131202C210446FFF7DAFF18B90020BDEC028B0C
S21401313038BD01222C212046FFF7D0FF0028F4D00D
S21401314000222C212046FFF7C9FF012205462C212B
S2140131502046FFF7C3FF22F01BF851EC100B16F0C8
S2140131606BFF08EE100A284622F015F8DFED1D7AEF
S2140131700323B4EEE78AC4B260008340DB43F1EE7A
S21401318010FA1949194DDBB213DD0A7813400122F2
S2140131908240134316480B7017F0E4FA2978154855
S2140131A017F05AFA74B92978134819F080FE0120ED
S2140131B0BCE7FCEEC87A17EE902A2A700A7813400C
S2140131C00222E5E7012C02D129780C48EDE7022C12
S2140131D002D129780A48E8E7032CE8D1297809487A
S2140131E0E3E700BF0000C842D30E00203E2A0020BD
S2140131F0705B0300875B0300E40A0020C00A00201E
S214013200C80A0020D00A0020014600B16421014806
S21401321019F04DBEE40A00202DE9F04182B00368A2
S214013220AB4A23F47F4323F007039342044602AFDD
S21401323000F0A0810BD8A2F5102293422ED002F501
S214013240A022934200F0F580BD46BDE8F081A14A78
S214013250934200F0008102F101729342F4D1B0F87A
S21401326005301D2BF0D103890320DB0740F1E981EE
S21401327000F01AFD60B1984C984920681AF063FC7A
S21401328019F054FD19F053FD954920681AF05BFCBE
S214013290FFF788FE04460028D6D0B0E0914E3046AF
S2140132A00CF0F4FD054610B38B4C8F4920681AF0DC
S2140132B04AFC8E4920681AF046FC19F037FD19F0D1
S2140132C036FD8B4B8B4A00938B49D02320681AF02E
S2140132D03AFC8A492B468A4A20681AF034FC28466A
S2140132E000F028FD874920681AF02DFCFEE7022130
S2140132F030780CF005FE044610B3774D7A492868FD
S2140133001AF021FC794928681AF01DFC19F00EFD07
S21401331019F00DFD764B774A00937749D523286837
S2140133201AF011FC75492346754A28681AF00BFCF9
S214013330204600F0FFFC734928681AF004FCFEE7FB
S214013340A02230782346114600940CF0B7FD0546BE
S21401335010B3614C644920681AF0F5FB6349206894
S2140133601AF0F1FB19F0E2FC19F0E1FC604B614A3E
S21401337000936149DE2320681AF0E5FB5F492B467E
S2140133805F4A20681AF0DFFB284600F0D3FC5D494F
S21401339020681AF0D8FBFEE7022130780CF0C4FD55
S2140133A0054610B34C4C504920681AF0CCFB4F49E7
S2140133B020681AF0C8FB19F0B9FC19F0B8FC4C4BA0
S2140133C04C4A00934C49E32320681AF0BCFB4B4956
S2140133D02B464B4A20681AF0B6FB284600F0AAFC9A
S2140133E0484920681AF0AFFBFEE7474B186819F00A
S2140133F0E8FCFFF7A3FD044600283FF449AF01208F
S21401340000F052FC00283FF41FAF334D3F492868B7
S2140134101AF099FB19F08AFC19F089FC3749234602
S214013420374A28681AF08FFB204600F083FC38499B
S214013430E5E0032000F038FC00283FF405AF264CF9
S214013440264920681AF07FFB19F070FC19F06FFC12
S21401345030492068D4E0032000F026FC60B11E4C01
S2140134601E4920681AF06FFB19F060FC19F05FFC2A
S214013470294920681AF067FB1A4C022120780CF0C3
S2140134803FFD0546002849D0134C174920681AF01D
S2140134905AFB164920681AF056FB19F047FC19F03A
S2140134A046FC134B134A0093134940F2011320685C
S2140134B01AF049FB11492B46114A20681AF043FBC2
S2140134C0284600F037FC0F4920681AF03CFBFEE75F
S2140134D0A0000A00A000060124140020185B0300C7
S2140134E0035C0300D20E00202F5C03008B5B0300FD
S2140134F0315C0300905B0300995B03005B5B030098
S214013500585B0300A55B0300EC0A0020535B030035
S214013510305C0300B65B0300CA5B0300022120781F
S2140135200CF002FD054600283FF48EAE4D4C4E4988
S21401353020681AF008FB4D4920681AF004FB19F0C0
S214013540F5FB19F0F4FB4A4B4A4A00934A494FF4FB
S214013550837320681AF0F7FA48492B46484A2068D0
S2140135601AF0F1FA284600F0E5FB464920681AF001
S214013570EAFAFEE7B0F805301B2B1ED1827A00F17D
S2140135800B0102F1080303F4FC73E8463E48ADEB79
S214013590030D21F014FEA67A02AD3B4932462846B9
S2140135A021F00DFE002328463849AB5521F059FE7F
S2140135B048BB0120FFF728FEC546032000F074FB38
S2140135C060B1284D324928681AF0BDFA19F0AEFBF1
S2140135D019F0ADFB2F4928681AF0B5FA032000F060
S2140135E063FB00283FF430AE1E4D294928681AF0C7
S2140135F0AAFA19F09BFB19F09AFBB4F80510286893
S2140136001AF0A1FA20E62846234921F02AFE0028CE
S214013610D0D02846214921F04BFE0028CCD03D21B0
S214013620284621F011FE0DF10B038342C4D103A8F5
S214013630FFF772FD01280CBF19481A4817F092F8D7
S214013640BAE700F031FB00283FF4FEAD054C104907
S21401365020681AF078FA19F069FB19F068FB12492C
S214013660F7E600BF241400202F5C03008B5B0300E9
S214013670315C0300905B0300995B03005B5B030016
S214013680585B0300A55B03003F2A0020DE5B0300B6
S214013690185B0300F55B0300E35B0300E95B0300D3
S2140136A0ED5B0300F05B0300195C0300034B1B6832
S2140136B0834202BF0122024B1A707047EC0A0020B7
S2140136C03F2B002030B503687F4A23F47F4323F065
S2140136D00703934289B040F0F480082200211220AB
S2140136E07A4B0CF079FC044610B3794D7949286879
S2140136F01AF029FA784928681AF025FA19F016FB03
S21401370019F015FB754B764A009376493D232868D8
S2140137101AF019FA74492346744A28681AF013FAFB
S214013720204600F007FB724928681AF00CFAFEE7FB
S2140137300146032214206F4B0CF04EFC044610B3D6
S214013740634D644928681AF0FEF9634928681AF03F
S214013750FAF919F0EBFA19F0EAFA604B604A0093AD
S21401376060494B2328681AF0EEF95F4923465F4A01
S21401377028681AF0E8F9204600F0DCFA5C49286867
S2140137801AF0E1F9FEE70146052216205A4B0CF025
S21401379023FC054610B34E4C4E4920681AF0D3F967
S2140137A04D4920681AF0CFF919F0C0FA19F0BFFA9E
S2140137B04A4B4B4A00934B49592320681AF0C3F9E8
S2140137C049492B46494A20681AF0BDF9284600F0B7
S2140137D0B1FA474920681AF0B6F9FEE70DF10F0174
S2140137E004A80CF03DFC044610B3394D394928684D
S2140137F01AF0A9F9384928681AF0A5F919F096FAC5
S21401380019F095FA354B364A0093364964232868F1
S2140138101AF099F934492346344A28681AF093F97C
S214013820204600F087FA324928681AF08CF9FEE73C
S2140138309DF8153001468DF818309DF81430082291
S2140138408DF819309DF8133018208DF81A30FF23A3
S2140138508DF81B30FE238DF81C309DF812308DF844
S2140138601D309DF811308DF81E309DF810308DF802
S2140138701F3006AB0CF0B0FB054610B3144C1549CF
S21401388020681AF060F9144920681AF05CF919F0FA
S2140138904DFA19F04CFA114B114A00931149742351
S2140138A020681AF050F910492B46104A20681AF081
S2140138B04AF9284600F03EFA0D4920681AF043F905
S2140138C0FEE709B030BD00BFA0000100405C030068
S2140138D0241400202F5C03008B5B03007B5C030039
S2140138E0495C0300995B03005B5B0300585B0300C4
S2140138F0A55B0300715C0300755C030010B5234CE7
S21401390001F0A4FA01F08AFC236F23F0070343F0C9
S2140139100303236719F0E6FB1D4B00209B6A9B07F8
S2140139205EBF01221B4B9A62D4F8203123F00303B9
S21401393043F00203C4F82031D4F8243123F00703FE
S21401394043F00203C4F82431D4F8403123F00303D2
S21401395043F00203C4F84031D4F8603123F0030386
S21401396043F00203C4F86031D4F8403223F0030375
S21401397043F00203C4F84032D4F8003223F00703C0
S21401398043F00203C4F8003210BD00BF00800050AF
S21401399000C0005000E0005008B5184B1B68C3F388
S2140139A00743012B0ED1164B04205A6E4FF4802389
S2140139B01449520358BF144A4B6601F51041086278
S2140139C058BF536603F080FB19F0DDF903F00EFBD8
S2140139D01AF067F803F02CFB1AF05DF803F05EFBB3
S2140139E0FFF78CFF03F012FB19F0C2F900F00CFB95
S2140139F000F03AFFBDE8084004F072B80080E00F1E
S214013A00008000500090005000A0005030B51C4DC2
S214013A1095B00DAC0FCD0FC495E80700032384E8DD
S214013A2007008DF84D302923164A1749CDE90223A0
S214013A30164B1024CDE904134FF48073224600215F
S214013A4009A8069321F0E2FB4FF4A020104B0DAA23
S214013A50CDE907030F238DF824300E4B07A90A93EF
S214013A6020230B9301238DF831300B4B0B48009329
S214013A7002AB8DF8254003F01BFE15B030BD00BF2C
S214013A80685F0300000006500005000600080007F6
S214013A9024000650402B0020A41300200014002010
S214013AA0831E012B10B512D8012910D8114B042200
S214013AB01B6905210020C3F3401301F0C3FD0E4B23
S214013AC01B681868A8B1BDE81040436A18478B1EEA
S214013AD0012B0CD801280CD8BDE810400022054B5C
S214013AE005211B691046C3F3401301F0ABBD012944
S214013AF0E5D910BD00C00350E00A002008B504490E
S214013B00044804F0AFF8BDE80840FFF77FBF00BFE8
S214013B10D80A0020F813002001481AF087B900BF20
S214013B2000140020014B1A6A186810470014002080
S214013B304FF4FA6307B500930023694603488DF8EE
S214013B40043000F0FDFA03B05DF804FBE40A00203F
S214013B50014819F02CB900BF845F03007FB500242B
S214013B600368464A23F47F4323F00703934205463E
S214013B708DF808408DF809408DF80A408DF80B4005
S214013B808DF80C408DF80D406DD002F18272934293
S214013B9071D1B0F80530212B6DD1FF2304A91A4647
S214013BA011E9030019F0BBF8012814BF41F2FC1417
S214013BB0334B4FF0210108BF187004F0FC0228793E
S214013BC00CF020FA064610B32E4C2F49206819F047
S214013BD0BAFF2E49206819F0B6FF19F0A7F819F0B8
S214013BE0A6F82B4B2B4A00932B494E23206819F03D
S214013BF0AAFF2A4933462A4A206819F0A4FF30460C
S214013C0000F098F82749206819F09DFFFEE71C4B45
S214013C101B78002B2FD028790CF09AF9054650B363
S214013C20184C1949206819F08EFF1849206819F0B8
S214013C308AFF19F07BF819F07AF8154B154A0093AC
S214013C4015495423206819F07EFF14492B46144A5F
S214013C50206819F078FF284600F06CF811492068B2
S214013C6019F071FFFEE7064B1B7823B104B0BDE8DF
S214013C7070401AF0CBB904B070BD00BFA0000601B9
S214013C80602B0020241400202F5C03008B5B0300B4
S214013C900F6003009C5F0300995B03005B5B0300FE
S214013CA0585B0300A55B03000B4B02461B788BB1E8
S214013CB00A4B1B78834234BF00200120084B1B7837
S214013CC03BB1084B1B7843FA02F212F0010F08BF12
S214013CD0002070470120F1E7D40E0020D50E002009
S214013CE0612B0020D60E0020012208B5074B1A7062
S214013CF00022074B1A700422064B1A701F22064B2D
S214013D001A7003F0CBFA054B186008BDD40E0020DC
S214013D10612B0020D50E0020D60E00202414002092
S214013D20024B0349186819F00EBF00BF2414002087
S214013D302F60030070B50C4C0C490646206819F03C
S214013D4002FF03F0ABFA0546206803F09BFA304603
S214013D50FFF7E6FF284603F095FA20680449BDE818
S214013D60704019F0F0BE00BF24140020316003003B
S214013D70336003002DE9F047434D88B001AC0FCD09
S214013D800FC495E80700012584E8070001213A20C1
S214013D9000F080FFDFF8FC800121282000F07AFF88
S214013DA03A4B404601A903938DF8125001F014FFD7
S214013DB02B4604220021022001F044FC2A46294613
S214013DC00023022001F03EFC02212B460846042275
S214013DD001F038FC042203212B46022001F032FCBC
S214013DE04FF002132A4C0226C4F83036A3F580336E
S214013DF0C4F82C361C230827C4F8346604F5005A88
S214013E00C4F81C364FF4487004F008FD04F58059D8
S214013E101420CAF8707004F001FD2320C9F87070F0
S214013E2004F0FCFCB9214046CAF8707019F061FA3A
S214013E30002330461A461946C9F8707001F002FC94
S214013E40002329461A46304601F0FCFB2B46314634
S214013E503046002201F0F6FB2B46002203213046B5
S214013E6001F0F0FB404601F007FE00212820C4F8CF
S214013E703016C4F82C16C4F83416C4F81C1600F014
S214013E8009FF08B0BDE8F0873860030000127A0029
S214013E9000C0035000C0055008B500F02DF8124BC5
S214013EA012498B4212D30020114B12498B4218D370
S214013EB0FFF70AF8186850F82240586840F8224080
S214013EC0013298688242F5D30C33EAE70022F8E71C
S214013ED01C6844F8220001325C68A242F8D3083319
S214013EE0E4E70022F8E700BF48AF030054AF030041
S214013EF054AF030054AF03004FF400414FF0FF30BE
S214013F00124B134A10B59A60D3F8882042F4700217
S214013F10C3F888200F4A916601F1884101F50052E5
S214013F2010664FF6DF7050660220C3F8D000BFF36C
S214013F304F8FBFF36F8F08244FF440330648C0F805
S214013F408041D36004600B6110BD00BF00ED00E04E
S214013F50002001000090005000E100E0014B1868CD
S214013F60704700BFF40A0020084B1B6F03F00703DD
S214013F70022B04D0032B05D0012B05D0FEE7044B02
S214013F8018687047034BFBE70348704700800050F2
S214013F90F40A0020F80A0020002D310108B5FFF7C9
S214013FA0E3FF054B1B6FC3F303330133B0FBF3F0A1
S214013FB0024B186008BD00BF00800050F00A0020C8
S214013FC00048704700B4C404014B1868704700BF2E
S214013FD0F80A0020054B1860054B1B6F03F007031A
S214013FE0032B01D1FFF7DABF704700BFF80A0020A4
S214013FF00080005000487047002D3101014B1868C1
S214014000704700BFFC0A00200020836A10B5B3F594
S214014010903F0ED21968084A91420AD1074C22787D
S21401402012F0FD0F04D1DB69984708B9012323700C
S21401403010BD4FF48170FBE707B0CD5E622B002008
S2140140404FF00053074A1A60BFF34F8F0649074BDC
S214014050CA6802F4E0621343CB60BFF34F8F00BF20
S214014060FDE700BF02020FF000ED00E00400FA05D4
S21401407005490A681318054883428CBF4FF0FF3282
S2140140800B601046704700BF000B00200080002028
S21401409037B50468012105463A2000F0FBFD0023F0
S2140140A001226179207901F0CDFA14223023217999
S2140140B013FB012303F1A04303F570331B686279F8
S2140140C0D340DB4303F001032370A379022B0ED107
S2140140D000F050FB2A460749607900F075FB012382
S2140140E0024661792079CDE9003301F053FA0020C8
S2140140F003B030BDD3CD02000F4B984215D00AD87D
S214014100A3F50043984212D003F58043984214BFAA
S214014110802025207047094B98420AD003F580433A
S214014120984214BF802052207047262070472420D2
S21401413070472720704700BF00000550004005501B
S21401414070B5044688B00068FFF7D6FF0D4601211A
S214014150064600F09FFD01213A2000F09BFD2B79D9
S2140141600422A179607901F06DFA0D2200216846DA
S21401417021F04CF803238DF8063001238DF8053025
S21401418002238DF801302B7921795A1E534253416F
S21401419020686A468DF80A3019F044F82268224BE6
S2140141A09A4239D003F580439A4237D003F58043CB
S2140141B09A4235D003F580439A4233D01B481C49B6
S2140141C0A3F5BD33824218BF0B46A07962792179E7
S2140141D042EA004243F82120304618F0BBFE2B6825
S2140141E02568B0FBF3F001382B6BE86123792A6B65
S2140141F00024102205EB431321469C660DEB0200BA
S21401420021F004F80123284604A98DF8103018F08F
S214014210B5FF204608B070BD064BD6E7064BD4E77F
S214014220064BD2E7064BD0E70080045000800550CD
S21401423060C5035080C50350A0C50350C0C50350D8
S214014240E0C50350012301790268134803FA01F11E
S21401425082421AD000F5804082420DD00F4B9A421E
S21401426015D003F580439A4213D003F580439A4252
S2140142700CBF04234FF0FF3341F27C525B0103F184
S214014280A04303F57033995070470023F4E70223E7
S214014290F2E70323F0E700BF00800450000005505A
S2140142A02DE9F04F9A46564B85B01B7806460F46C9
S2140142B01546DDF83C909DF844B0DDF85080002BA3
S2140142C000F08D80072A00F28C800E9B002B00F0F8
S2140142D08880B9F1000F00F08480129BB3F5006F5F
S2140142E07FDC012802D1109B002B7AD0454B03EBD3
S2140142F005131B7B002B76D0434C10220021684609
S21401430020F084FF04EB45141022002F59D13946C2
S214014310204620F07BFF43F210036380BBF1000FC1
S21401432003D1E37843F00303E370374A0E9B02EBB5
S214014330451CCCE90193129B6901013BC3F30A00BA
S2140143409DF84C30012E03F003034FEA836343EAE2
S214014350001E53582D48CDF800A000EA03004EEA8F
S2140143600003535041D113230CF1100ECCF80C303E
S2140143709CE80F008EE80F006FF00301DCF81C20AC
S214014380109B61F39F02012FCCF81C20CCF814304F
S21401439003D1CCF81890CCF804300027194A29012B
S2140143A002EB051342F80180159A28465A606946C1
S2140143B022469F605E7301F0E5F9384605B0BDE818
S2140143C0F08F0021204620F021FF4FF444736380D4
S2140143D0BBF1000FA9D1E37843F03003A4E70C4802
S2140143E0ECE70C48EAE70C48E8E7B8F1000FD4D14F
S2140143F09CF8023068F304138CF80230CDE700BF56
S214014400632B002028140020A81400200F80FFF33F
S214014410028000F0018000F0078000F038B5124BF2
S21401442005461B78DBB1E0B118F078FE0F4A002391
S2140144301146147B54B92B6001251A0101EB0313B5
S2140144401D738C5018F070FE204638BD0133082BC2
S21401445002F11002EDD118F067FE0548F5E70548B0
S214014460F3E70548F1E700BF632B0020281400207E
S214014470048000F0028000F0018000F013B518F00F
S2140144804DFE00230B4A147B7CB90133082B02F145
S2140144901002F8D1019001F017F9074B01981C7032
S2140144A018F042FE204602B010BD18F03DFE03484B
S2140144B0F9E700BF28140020632B0020058000F0D8
S2140144C00D4B10B51B78044693B1072812D818F087
S2140144D025FE0A4B03EB04131A7B2AB100241C7336
S2140144E018F022FE204610BD18F01EFE0448FAE71A
S2140144F00448F8E70448F6E7632B00202814002058
S214014500068000F0028000F0018000F0154B13B524
S2140145101868002301908DF8043018F0FFFD124B47
S2140145201C7824B118F000FE104802B010BD01221C
S2140145301A7018F0F9FD0E4B01A81C731C7783F84E
S2140145402C4083F83C4083F84C4083F85C4083F869
S2140145506C4083F87C4008238DF8073001F0E0F8C2
S2140145602046E2E7A4600300632B0020038000F0EE
S214014570281400200A4A08B512785AB107280BD821
S214014580084A02EB00131B7B43B1002101F0BAF885
S214014590002008BD0448FCE70448FAE70448F8E7A9
S2140145A0632B002028140020028000F0018000F018
S2140145B0078000F00A4A08B512785AB107280BD8C6
S2140145C0084A02EB00131B7B43B1012101F09AF864
S2140145D0002008BD0448FCE70448FAE70448F8E769
S2140145E0632B002028140020028000F0018000F0D8
S2140145F0078000F00A4A08B5127852B107280AD88F
S214014600084A02EB00131B7B3BB101F009F90020BD
S21401461008BD0548FCE70548FAE70548F8E700BF86
S214014620632B002028140020028000F0018000F097
S214014630078000F00D4B1B7893B1072812D889B17B
S2140146400B4B03EB00131B7B73B10A4B1A6D012353
S21401465003FA00F010401ABF00200B700870704774
S214014660054870470548704705487047632B00208A
S2140146702814002000000450028000F0018000F0A1
S214014680078000F00B4A10B512780C4662B1072875
S2140146900CD859B1084A02EB00131B7B43B101F059
S2140146A0D1F82070002010BD0448FCE70448FAE762
S2140146B00448F8E7632B002028140020028000F04D
S2140146C0018000F0078000F02DE9F843174B1F6DBD
S2140146D05B6D1F4000D5FEE701260025144CDFF870
S2140146E05480DFF85490374217D02368C8F85060DA
S2140146F09BB1A168284601316268A1609847637B37
S214014700012B0AD148B909EB45131A7B60F3410224
S2140147101A731A7F60F341021A770135082D4FEAA2
S214014720460604F11004DED1BDE8F883000004500B
S2140147302814002000200450A814002070B5044658
S21401474001250B4E04B970BD94FAA4F0B0FA80F0BE
S21401475005FA00F306EB001224EA03045368002B63
S214014760F0D0117B11B191689847EBE79847E9E7DC
S214014770A815002008B5192000F072FD28B14FF0E9
S2140147800072074BC3F880211A601A2000F068FDFA
S21401479028B14FF08062024BC3F880211A6008BD31
S2140147A000E100E038B505460C4618F0B7FC0022DB
S2140147B0044B03EB05135C601A73BDE8384018F030
S2140147C0B3BC00BFA8150020F8B505460F4616462F
S2140147D018F0A4FC104B05F0FC02D3F824140023B7
S2140147E0EC1804F00304144321FA04FC1CF0010F36
S2140147F007D00133042BF3D1FF2418F095FC204693
S214014800F8BDFF2CF9D00122044B03EB0413C3E9D6
S21401481001761A73F1E700BF00C00350A815002007
S214014820074BD3F82404D3F8202403F50053104093
S21401483000F0553020F05020C3F82004FFF77EBF6B
S21401484000C00350074BD3F82404D3F8202403F503
S2140148500053104000F0AA3020F0A020C3F8200436
S214014860FFF76CBF00C00350024B1968024B186873
S2140148700EF09EBC080B0020040B002037B59200FA
S21401488004460D46019221F02FF9431C0BD060B966
S21401489029462046019A20F082FC0028044808BFD9
S2140148A0002003B030BD0348FBE70348F9E700BF2B
S2140148B010E000F021E000F024E000F013B504461B
S2140148C001A801F063F89DF80630012223804FF419
S2140148D0807300206380054B9B680A3303F01F0337
S2140148E002FA03F3636002B010BD00BF0080E00F60
S2140148F010B5044621F008F9431C15D0B0B90C4B8D
S21401490020469B680A3303F01F020123934023F0DD
S21401491003032344984201D1002010BD50F8042B14
S2140149200132F7D00348F8E70348F6E70348F4E70F
S2140149300080E00F0EE000F021E000F024E000F03F
S21401494008B518F0E4FB014B186008BDE81D00200F
S214014950014B186818F0DFBBE81D0020044BD3F8A4
S2140149608420D206FBD4D3F88400C0F381107047AC
S2140149700040005038B5104B0546D3F820310C46A0
S21401498003F00303022B0BD0032B0DD0012B0FD109
S214014990FFF7E4FA052305B1286004B1236038BDAA
S2140149A0FFF712FB0323F6E7FFF724FB0223F2E7E8
S2140149B000231846EFE700BF0080005073B50D4690
S2140149C000210E4B0191D3F88041064604F0030402
S2140149D0012C09D0022C0CD00C460EB1019B336081
S2140149E005B12C6002B070BD01A8FFF7C3FF0F240C
S2140149F0F3E7FFF7FFFA0190EFE700BF00800050F2
S214014A0038B5174B0546D3F824310C4603F0070397
S214014A10013B052B20D8DFE803F0030F171B0B1310
S214014A20FFF79CFA052305B1286004B1236038BD61
S214014A30FFF794FA0623F6E7FFF7C6FA0323F2E731
S214014A40FFF7C2FA0423EEE7FFF7D4FA0223EAE7F8
S214014A5018F09EF90723E6E700231846E3E700BFB0
S214014A600080005038B5104B0546D3F840310C464F
S214014A7003F00303022B0BD0032B0DD0012B0FD118
S214014A8018F088F9092305B1286004B1236038BD00
S214014A90FFF7B4FA0823F6E718F07FF90B23F2E7DD
S214014AA000231846EFE700BF0080005038B5134BCF
S214014AB00546D3F800320C4603F00703013B032BEF
S214014AC018D8DFE803F0020A0E1218F063F909237A
S214014AD005B1286004B1236038BDFFF78FFA0823BB
S214014AE0F6E718F05AF90B23F2E7FFF757FA0E2309
S214014AF0800AEDE700231846EAE700BF0080005071
S214014B0038B5104B0546D3F840320C4603F0030384
S214014B10022B0BD0032B0DD0012B0FD118F03AF935
S214014B20092305B1286004B1236038BDFFF766FA92
S214014B300823F6E718F031F90B23F2E700231846AD
S214014B40EFE700BF0080005038B5104B0546D3F89C
S214014B5060310C4603F00303022B0BD0032B0DD060
S214014B60012B0FD118F016F9092305B1286004B1FD
S214014B70236038BDFFF742FA0823F6E718F00DF96F
S214014B800B23F2E700231846EFE700BF0080005032
S214014B9010B40D4C0B46D4F8204204F00304012C4B
S214014BA00AD0022C0CD008B1002101600BB1002202
S214014BB01A605DF8044B70475DF8044BFFF7DABEE8
S214014BC05DF8044BFFF74EBF0080005038B50C4629
S214014BD0054618F09CFA064B9A6A82EA040101EA35
S214014BE0050454409C62BDE8384018F094BA00BFF2
S214014BF000C00050B0F5207F1FD009D8B0F5007F67
S214014C0015D003D868B1B0F5C07F0AD000200CE0FB
S214014C10B0F5607FFAD10B4BD3F88000C0F30110DA
S214014C2003E0084B186FC0F3033001307047054BA3
S214014C30D3F89000C0F30460F7E7024B186FC0F397
S214014C408020F2E7008000504FF400320E4B014600
S214014C5010B500209A66FFF7CDFF41F67132484342
S214014C600A490B4B88428CBF4FF480100020DC6948
S214014C70DA639A6822F4401202439A60E20344BF60
S214014C800022DA6310BD00BF00900050005A620295
S214014C9000000350420910B510D0012A10D00B4B6A
S214014CA00B4C022A18BF234600F01F0051B103F532
S214014CB08053012202FA00F0186010BD1346F3E794
S214014CC0044BF1E703F50053F3E700BF688000509B
S214014CD0608200506480005008B5802018F03AF9D0
S214014CE0034B98429EBF4FF48032024B1A6708BDB1
S214014CF0005A620200A000501FB50023B0F5807F65
S214014D00019377D028D8382800F094800BD824381F
S214014D10092810D809280ED8DFE800F0676767670A
S214014D200D0D620D377D52285FD008D83D283BD047
S214014D303E2800F08480019805B05DF804FB8028C9
S214014D40F9D1414B1B6F03F00703013B032BF2D84C
S214014D50DFE803F044413F6CB0F5D06F5BD019D863
S214014D60B0F5A06F66D00AD8B0F5806F3DD0B0F52B
S214014D70906FE0D1002001A9FFF742FEDBE7B0F516
S214014D80B06F2DD0B0F5C06FD5D1002001A9FFF7C7
S214014D9069FED0E7B0F5006FECD00AD8B0F5E06F49
S214014DA04DD0B0F5F06FC6D1002001A9FFF7CCFEBB
S214014DB0C1E7B0F5086FBED1234BD3F8003103F03D
S214014DC00303022B2CD0032B2ED0012B30D1FFF75F
S214014DD0FBF8032300E005230193ACE70223FBE77E
S214014DE0002001A9FFF7EAFDA5E7002001A9FFF7CA
S214014DF0C1FDA0E702934FF0E0231B695B0705D5D1
S214014E00FFF7CCF80C230393039BE5E703A902A85D
S214014E10FFF728FEF8E7002001A9FFF747FE8AE71B
S214014E20FFF7ECF80823D7E717F0B2FF0723D3E71D
S214014E300123D1E7002001A9FFF7AAFE7BE70020A6
S214014E4001A9FFF75DFE76E7008000504FF40022CF
S214014E50034B5A66012203F580439A62704700BFEE
S214014E600090005008B5FFF747FF082811D0093811
S214014E70012811D84FF40012094B4FF6FF705A66FD
S214014E8003F5D8335B6A13F0010F18BF4FF4FA70BD
S214014E9008BD044B1888FBE74FF6FF70F8E700BF24
S214014EA000900050BE0E002070B504468020FFF72B
S214014EB023FF032800F082804FF40022444B022196
S214014EC05A6645F60E03434AC2F88030424B996251
S214014ED0012103F580539962936DD903FCD4D4E97B
S214014EE000131B0543EA0163E17B94F822500B4350
S214014EF0217B94F8236043EA0143617B43EA013353
S214014F00A17B43EA811313619169D4E904031B066B
S214014F1043EA806301F000410B43A17EE07E0B4330
S214014F20217E43EA0143617E43EA01239361E369FB
S214014F30126A002B0CBF0021082122F00D0242EA62
S214014F40030242EA8002234B42EA01021A6294F803
S214014F5020204FEA421232D1986A94F8211020F0AC
S214014F60330042EA0112024342F001029A621B4AEE
S214014F70996D32EA0101FBD1022217498A621A654C
S214014F809A6D5200FCD41869A26820F4700040EAB9
S214014F9002504FF0004218610F4B9A611DB9022270
S214014FA003F580539A6216B901220D4B9A6294F862
S214014FB024301BB1074B0B4AC3F8802070BD996A99
S214014FC021F0330131430A4342EA4502EEE700BFCE
S214014FD00090005000C0005000D000500300014077
S214014FE000E00050F1A7FFFF13B5194CA16AA36DAD
S214014FF013F4803F18BF0122164B18BF9A62022293
S2140150009A621A65A36D5B00FCD4134BA26993F9EF
S214015010003022F47F020344000222F47F4280B271
S21401502083F30803104340EA0340A0610220019184
S214015030FFF7CCFDA36D019913F4803F05D0012045
S21401504002B0BDE81040FFF7C1BD02B010BD00BF01
S21401505000C0005000D00050642B0020014B93F993
S21401506000007047642B0020F0B5D0E901434FF4EF
S21401507080061A4A4178057856664FF4D1560227BB
S21401508002F5B8325662164E4F2977604FF0010787
S21401509028BF4F2106F5805677601669F603FCD4C3
S2140150A041EA052151611B01417B43EA04230B437D
S2140150B0017B43EA41039360C37B817B1B0143EA87
S2140150C04113417C0B43017C43EA41035360837CDB
S2140150D013B16FF4D1535362F0BD00BF009000507E
S2140150E000100250014B1880704700BFBE0E002012
S2140150F04FF4001208B5184B5A660223174A53603C
S214015100936813F48033FBD1012822D1FEF75CFFAC
S214015110134B984215D003F5122303F5F863984212
S21401512013D0104B00EB8002400AB3FBF0F0520A9A
S2140151300A4BDA62012218635A620022074B5A6050
S21401514008BD45F67A10084AF2E745F61A00074AFE
S214015150EEE75362F1E700BF0090005000400250B6
S21401516000F0490264666666D8B80500BBCF050044
S214015170B0F5207F10B50C4642D008D8B0F5007FB8
S21401518033D003D888B1B0F5C07F0ED010BDB0F5CE
S214015190607FFBD11F4B013CD3F8801021F030011A
S2140151A041EA0414C3F88040F0E717F0CBFE17F08D
S2140151B094FF4FF48031184A164B1167196F013C62
S2140151C021F4704141EA04341C67FEF7E7FE044609
S2140151D0FFF7C4FBC0F10201204617F078FF00F08C
S2140151E02DF8BDE81040FFF777BD0A4B013CD3F818
S2140151F0901021F0F85141EA0464C3F89040C5E7E5
S214015200044B013C196F21F4806141EA84241C6738
S214015210BCE700BF008000500090005008B5012197
S214015220022000F0DBF817F08DFE17F056FF4FF462
S2140152308032014B1A6708BD0090005008B54FF444
S214015240C07017F087FEBDE80840044988428CBF4D
S214015250022101214FF42070FFF78ABF80F0FA0285
S214015260054B420953F8223000F01F0023FA00F0E4
S214015270C04300F00100704700E100E0194B10B593
S2140152801B6873B3184A5268012A2AD0174A80202D
S214015290C2F80031FFF730FD05281FD14FF4C0706A
S2140152A0FFF7A8FC0128044604D102214FF4C07080
S2140152B0FFF75EFF07220E4B1A610122A3F580530A
S2140152C05A60094A1369DB07FCD5012C09D121462E
S2140152D0BDE810404FF4C070FFF74ABF0122054BEE
S2140152E05A6010BD9C1E002000C001500080005076
S2140152F000E0015000D0015000224FF40031074B6E
S2140153001A60074A516602F598325268012A02BFAE
S214015310044AD2F800211A60704700BF9C1E002084
S2140153200090005000800050044A4178536F23F4E7
S214015330407343EA01235367704700BF00400050A3
S21401534010B5044608B1FFF7D7FF0E4A136943F0BC
S2140153500403136102F07AFE17F0E9FE17F0D7FE98
S21401536020F0CAFB17F0D7FE17F0E2FE02F082FE2D
S2140153701CB1BDE81040FFF781BFBDE81040FEF745
S2140153800DBE00BF00ED00E010B5044608B1FFF702
S214015390B3FF0C4A136943F00403136102F056FE8F
S2140153A017F0B5FE20F0A8FB17F0B5FE02F062FE7E
S2140153B01CB1BDE81040FFF761BFBDE81040FEF725
S2140153C0EDBD00BF00ED00E0034A0179D36E23F086
S2140153D030030B43D366704700400050F8B50446CF
S2140153E01C4BD3F88420D106FBD4D3F88430C3F306
S2140153F081139C422CD0FEF7B7FD012C064602D144
S214015400214617F064FE17F082FE4FF00072124B31
S21401541007465A66204617F090FE4FF480630D4DFE
S214015420621E93402B676B6E9A0103D4D5F88430C5
S2140154309B060AD5384617F06EFE022C08D1304678
S214015440BDE8F840002117F042BED5F88430EAE7FF
S214015450F8BD00BF004000500060005007B518B905
S2140154600191FEF781FD0199064B1B7843B1064B6E
S214015470984205D8012003B05DF804EBFFF7AEBFF4
S2140154800220F8E7652B0020005A62020278034BDF
S214015490012100201A70FFF7E1BF00BF652B002035
S2140154A04FF0004210B501244AF6CD31154B5A662D
S2140154B0154A03F50B2354605A6C1964224088B9C7
S2140154C0996811F0010F114903D08C60D86AC007A2
S2140154D0FCD501234B6012B10D4B0E4A1A641FF026
S2140154E023FA10BDD96A0907FCD42021074B59625B
S2140154F00121A3F58053996005494B6A9B06FCD5AB
S214015500E9E700BF009000500050095000600950C4
S214015510004009503254FFFF4FF0004238B5194B96
S214015520194C5A66012203F50C235A604AF6CD330C
S214015530656C23644378154093401343134AD36341
S214015540A368827823F0740343EA0213C278002A20
S21401555014BF042200221343A3600279837943EA2D
S214015560022323614279C37943EA02236361007807
S214015570FFF796FF0DB1064B23641FF0D5F9012006
S21401558038BD00BF00900050004009500040005058
S2140155903254FFFF072AF7B501F0030614461F46EB
S2140155A04FF003012CD89500A94000FA05F21C48DB
S2140155B0019117F0C3FD01991A4806FA05F217F092
S2140155C0BDFD194B19499DF82000002F08BF19464B
S2140155D0012303FA04F40C60154B1649002808BF92
S2140155E00B461C60144B9DF82400C3F82044103170
S2140155F0A3F6DC33002808BF0B461C6003B0F0BDE1
S214015600A2F10805AD00A94000FA05F20B48019188
S21401561017F094FD01990A4806FA05F2CFE700BF94
S21401562000C4035008C4035010E4035010D40350C0
S21401563014D4035014E4035000E0035004C4035090
S2140156400CC40350F8B504460D461F4616464AB12B
S21401565001238B403021194A01FB0022FFB141F2A0
S2140156601001535004EB4403072D4FF00F014FEA8E
S214015670031317D8A80006FA00F281401048184410
S21401568017F05CFD56B9012130230C4801FA05F5E7
S21401569003FB040077B141F21003C550F8BD42F296
S2140156A01001DEE7A5F10800800006FA00F281404D
S2140156B00448E4E742F21003EFE700BF00C00350DE
S2140156C004C003500CC003504FF400120B4B10B52E
S2140156D0C3F88020BFF34F8FBFF36F8F0024FF22E4
S2140156E0074B21465C6520209A625C60FFF7D2FA80
S2140156F02146BDE810402120FFF7CCBA00E100E0CA
S21401570000000450044A054B002918BF1346012225
S21401571002FA00F018607047402004504010045010
S21401572010B5012104462020FFF7B4FA01212120FB
S214015730FFF7B0FA0122114B5A60227812069A60DE
S2140157406178A27842EA01429A61FF229A620022B7
S2140157509A631A644FF000425A654FF0FF324FF4D5
S214015760001103F500531A65054AC2F88011E37863
S2140157701B01DBB282F81533116010BD0000045026
S21401578000E100E02DE9F04101250C46C3B2DFF847
S21401579088E0D1F800809D408F7ACB7A94F80DC0CE
S2140157A0097BCEF850500EF5005E4EF820804FF083
S2140157B0300E184E1B050EFB006043EA074343EA12
S2140157C0415322F00302C0F860C0C365026717F0B8
S2140157D0A5FC736D2B437365237A13B1336C2B438E
S2140157E03364637A13B1B36B2B43B3632279A37922
S2140157F043EA0243084A93616179E37943EA014344
S21401580006498B61034B55639D64BDE8F04117F073
S2140158108BBC00BF00000450002004500010045050
S21401582010B50124C0B2844017F078FC044B5A6DC1
S21401583022EA04025A659C62BDE8104017F074BC67
S2140158400000045010B50124C0B2844017F066FC75
S214015850074BDA6A224209D15B6B34EA03030CBFB9
S2140158600124002417F060FC204610BD0024F9E74F
S214015870000004504FF40032054B9A6641F671322F
S21401588003F51C33DA63012203F50053DA6070472F
S2140158900090005041F671320121064BDA6303F5A0
S2140158A00052D1600022DA634FF40032A3F51833B8
S2140158B09A66704700000350CB784A7810B55B01B2
S2140158C00C7843EA82030A79234343EA02130C2243
S2140158D0424302F1B0421363012C02BF8A78024BA5
S2140158E043F8202010BD00BFE880035008B54FF0F4
S2140158F0B0435A6802B960B15B680BB117F02FFC70
S2140159004FF0B04130B10120074B586017F027FC2B
S214015910C86008BD17F023FC0223CB6017F01FFCFC
S2140159200122024B5A60F4E700100058002000588C
S2140159304FF0B0435B6870B50BB117F010FC012156
S214015940104B4578596083780679002BC37814BFCD
S21401595002240024002B14BF042200224379DB001A
S21401596043EA06132B43234313434FF0B04293609D
S214015970054B59600378002B14BF0B460223D360F6
S21401598070BD00BF00200058001000584FF4803250
S214015990064B5A6603F5E6235B69C3F385128270EC
S2140159A003F03F021B0B42700370704700900050DB
S2140159B030B5174CA0421BD004F58044A04219D044
S2140159C004F58044A04217D004F58044A04215D0C7
S2140159D004F58044A0420CBF04204FF0FF3006259A
S2140159E00C4C6BB105FB001004EB8000C26030BDAF
S2140159F00020F4E70120F2E70220F0E70320EEE7BB
S214015A0005FB0010120204EB8004E260EFE700BF22
S214015A10008004500081035070B5054616461C46AA
S214015A2021B94FF4207017F095FA0146402C1BD08F
S214015A3003D8DCB1202C1BD070BD602CFCD1042314
S214015A4003FB06F2560806EB4113B3FBF2F3094AD1
S214015A50203B02EAC303AA6822F06002AA60AA6891
S214015A601443AC60EB61E7E70623E9E71023E7E7B9
S214015A700823E5E7F8FF7F00012200F5805310B503
S214015A805A6040F6AA6341F20502436100230E49BB
S214015A908360C365C26000F500520361C361C364DD
S214015AA091640A498365884202D0094CA04207D115
S214015AB08842036502D0064B984201D10023436514
S214015AC00123536010BD00BFFFFF010000C0055059
S214015AD00000065070B50D46FFF7CEFF012300F516
S214015AE080567360AB7C04461BB1836843F08043E9
S214015AF08360EB7C5BB1354A2B7D944245D1A2F5A0
S214015B001032C2F88C31E36D43F08003E3652A8AD4
S214015B106B7B20461343EA891343E3602B7BD5E96D
S214015B200112FFF779FF6B7D1BB1A36843F4803345
S214015B30A360AB7D1BB1A36843F40043A360EB7D78
S214015B402A7E1B07120502F4E00203F0E04313432A
S214015B50A365697E1D4A8B1E012B1D4B1FD89442DF
S214015B601BD002F5804294420CBF01224FF0FF3257
S214015B7003EB4213022041F21C620329985020D104
S214015B800423F3652B78636170BD124A944204BF07
S214015B90A2F52032C2F89C31B5E70022E8E794422C
S214015BA00DD00C4A94420CBF01224FF0FF3203EB9A
S214015BB04213022042F21C6201299850DFE70022BC
S214015BC0F5E7042204F50053DA65DBE700C005506B
S214015BD000C003500000065038B50D46FFF74CFFD5
S214015BE00122A97B00F580535A602A8A836800291E
S214015BF014BF4FF48061002142F0010213432A7D55
S214015C000B43002A14BF4FF00052002283608368C2
S214015C10044613438360AB7C5BB11D4AEB7C904228
S214015C202DD1A2F51032C2F88C31E36D43F080031A
S214015C30E3652B7B2046D5E9011243F48053E360EC
S214015C4017F038FB6B7B0BB1102363616B7D1BB1C7
S214015C50A36843F48033A360AB7D1BB1A36843F410
S214015C600043A360EB7D2A7E1B07120503F0E04389
S214015C7002F4E0021343A3652B78636138BD054A3D
S214015C80904204BFA2F52032C2F89C31CDE700BF96
S214015C9000C005500000065038B50446054D1EF0FC
S214015CA069FE0FCC0FC594E8030085E803000020C9
S214015CB038BD00BFA01E002047F6FF739A42F0B51C
S214015CC067D0012967D8354DCF0015F8313005EB7F
S214015CD0C100012B847813D10025C3781B1B9D427C
S214015CE002D3E018C0B2F0BD591B4668A3EB5101C0
S214015CF036F911609642D4BF0D4601F1FF33EEE747
S214015D0040680028EFD0B0F90030934204DBB0F9C8
S214015D1002309342B8BF134682883D44FF2A19BF1A
S214015D20C8214FF0280CB0F90610B0F908C0A1EB55
S214015D3003020CBF0126002692FBFCF26D7832446A
S214015D4012B2954201DD002A01DA6A1E12B24FF440
S214015D507A7700EBC206F188B668013213FB01615F
S214015D6012B221EAE17101F5FA719542B1FBF7F140
S214015D7004DD00EBC206B6888E42EAD200EBC20210
S214015D8032F8040C884228BF0846A04238BF204695
S214015D90A8E7FF20A7E70020A5E700BFA01E002078
S214015DA00129F0B553D82B4800EBC10410F8311087
S214015DB0636801290FD1E078A478904294BFC4EBC0
S214015DC00001C4EB0201001BCAB28242C8BF002216
S214015DD033F91200F0BD002B39D0A178914202D3DD
S214015DE0B3F90200F6E7E178B3F900009142F1D980
S214015DF099886478A1F1FF06013C714203F104051C
S214015E00E4B2714103F10C071FFA82FCCEB2B44230
S214015E1016D805EBC1014FF47A756A43B1F9024011
S214015E204968521A04EBD47102EB610292FBF4F258
S214015E309042CFDBB3F902009042CBDC10B2C9E747
S214015E4037F831E04E1CE645E3D33146DEE702483B
S214015E50C0E700BFA01E00200080FFFF08B5044871
S214015E60FFF71AFFBDE8084001201EF087BD00BFFE
S214015E70CC60030000487047C00E00207FB50222A8
S214015E80084B0949CDE901234FF00073CDE903130F
S214015E90052301A94FF0FF3005931EF0A5FD07B0BD
S214015EA05DF804FB006A1800000204001B0603F0FC
S214015EB0706300F00F000902034301F470611204DD
S214015EC002F470220B431343014A1360704700BF6C
S214015ED00020025C60B5054619B10139B1F5806F45
S214015EE010D2094EF06810F48030FBD143EA01214C
S214015EF0120741EA050302F08052134343F00043C0
S214015F00736060BD0120FCE70020025C0122054BA6
S214015F109A60DA68D203FCD4D86820F00F00000437
S214015F20000C70470020025C014B1868704700BFE8
S214015F300040025C014B5868704700BF0010025CCD
S214015F40014B186B704700BF0010025C014B1868CC
S214015F50704700BF0010025C014B9860704700BF9D
S214015F600010025C014B1864704700BF0010025C11
S214015F70014B5864704700BF0010025C014B586328
S214015F80704700BF0010025C0022014B1A60704788
S214015F900010025C024A136843F001031360704765
S214015FA00010025C43F20402014B1A60704700BF06
S214015FB00010025C024A136843F030031360704716
S214015FC00010025C044B1A6842F480721A601A6868
S214015FD022F480721A6070470010025C024A13684D
S214015FE043F48063136070470010025C034A136831
S214015FF023F4702343EA0040106070470010025CEF
S214016000044B1A6902605A6942609A698260DB69C8
S214016010C36070470010025C0268044B1A61426854
S2140160205A6182689A61C268DA6170470010025C40
S214016030024B1A6BD207FCD4186270470010025C40
S214016040024B186B00F00E00704700BF0010025C98
S21401605082B01FB507930A9B04AC8B4228BF0B4640
S21401606004E907001048D100079948BF03330160CF
S214016070099948BF23F0030323F0704301F0E04180
S214016080194341F000518160002102F0E042019C79
S214016090134343F00053C16004618361416304B05C
S2140160A0BDE8104002B070470000025C3F22034B7F
S2140160B01A631022DA6103229A6370470000025CB9
S2140160C0024AD36B9B07FCD4704700BF0000025CFA
S2140160D0034B986A10F0240018BF0420704700BFD5
S2140160E00000025C08B5FFF7F3FF064BDB6B23F4F9
S2140160F07F4323F0EF0303431EBF0122024BC3F885
S214016100FC2F08BD0000025C00F0FF3F032208B52B
S214016110054B186019615A63FFF7C8FFFFF7D0FFF8
S214016120BDE80840FFF7DEBF0000025C4268034698
S214016130182A10B50AD0202A1DD0102A2BD1174AAA
S214016140D2F80424D4010AD4012013E0134AD2F869
S21401615004249001F8D50A6842F008020A60104843
S2140161601A6882424FF000000ED10A6842F04002DF
S2140161700A60586010BD094AD2F804245201E3D5DA
S2140161800A6842F00402E9E7064CA242F2D10A6824
S21401619042F08002ECE70720ECE700BF0000025C5B
S2140161A0662B0020672B002013B5084CD4F8044456
S2140161B0E40508D5009313460A460146002000F080
S2140161C01BF802B010BD0120FBE700BF0000025C17
S2140161D013B5084CD4F80444E40508D500931346D7
S2140161E00A460146002000F02BF802B010BD01203F
S2140161F0FBE700BF0000025CF0B516465A688DB09A
S214016200102A0D46129F15D17A68102A12D10A4A11
S21401621009AC07CA84E8070022462946CDE90547A6
S214016220CDE90344CDE901440448009617F05CF932
S2140162300DB0F0BD0720FBE7506103003000010000
S214016240F0B516465A688DB0102A0D46129F15D124
S2140162507A68102A12D10A4A09AC07CA84E80700EC
S21401626022462946CDE90574CDE90344CDE901442A
S2140162700448009617F038F90DB0F0BD0720FBE78B
S214016280506103001000010070B598B0002843D09B
S2140162902C4C08AD0FCC0FC50FCC0FC50FCC0FC5BE
S2140162A094E80F0085E80F006D4604AE04F1100374
S2140162B020340FCB85E80F0094E80F0086E80F0026
S2140162C0FFF780FE0420FFF791FEFFF76BFE3046D6
S2140162D0FFF7A2FE002408AE56F8040B0134FFF7C0
S2140162E0A7FE102CF8D1FFF725FE0328FBD90024C2
S2140162F0FFF74AFE2646FFF717FE55F8043B013620
S2140163005840042E44EA0004F5D12CB1012206209F
S2140163100D4B1A7018B070BDFFF754FE0820FFF73A
S2140163201BFE0020FFF71EFE0720FFF721FE4FF49D
S2140163300070FFF723FE0820FFF758FEFFF72AFE3E
S2140163400020E7E730620300692B002008B5FFF75D
S21401635039FE0122014B1A7008BD00BF682B0020D0
S21401636030B589B005AC84E80700FFF7E9FDC30541
S21401637001D5FFF7EBFF0A4D2B781BB117F016FA84
S21401638000232B70074B069AD3E901018DE8030021
S21401639002921B6894E8070017F084F909B030BD33
S2140163A0682B0020906203001FB517F0FFF9044622
S2140163B030B1012206240D4B1A70204604B010BDE0
S2140163C0FFF7B2FD0090FFF7AFFD0190FFF7ACFDC0
S2140163D00290FFF7A9FD03906846FFF71DFEFFF741
S2140163E0B5FFFFF7E7FDFFF7F9FDE6E7692B0020AC
S2140163F005289ABF014B185C002070479C62030079
S21401640030B5154B87B00293144B0390049346F6B0
S21401641011030D46059300F06DF91428044616D1B4
S214016420684617F073FA4FF0A843032202A95A638D
S21401643019601D619A63DA6B9207FCD1142C02D1A4
S214016440684617F071FA00F089F9044601E0002861
S214016450E9D0204607B030BDB81E00200400002059
S2140164602DE9F04FB1B005468C46E9466E4F3B9E8E
S214016470DDF8F8E0409C07F1100AC84638687968EC
S2140164800837A8E803005745C146F6D10EEB0208C7
S214016490C8F1000909F00F09002E00F0AF8077421D
S2140164A007F00F070121DDF8FCB0C4F1100ACDF8A2
S2140164B010B0059144F0005106914FEA0A2101F40B
S2140164C0F85141F02101079106B96B460893002D5A
S2140164D040F09680002C00F0938004AB0993002EC8
S2140164E000F0908046F000530A93002D40F08D8016
S2140164F0002C14BF0123212343EA07230B9308A989
S21401650042F00053CDF830C03D980D910E934FEAFE
S214016510092343F041030F93109002B10CA9002AFE
S21401652016BF00224FF00052412342EA0E0211919B
S214016530129213933C9B3D4A149310AB15933C4B1C
S2140165400021169340F6110317933A4B002D08BF0E
S2140165501346189314AB1993374B10221A93112331
S2140165601B931CAB18461EF051FE01221D924AF0E9
S21401657080421E9200220346239205B9EB46102C58
S21401658008BF01230DF1900A102200215046CDF8D4
S21401659080B0219322941EF039FE002C37D020AB18
S2140165A0002125938F4218BF534647F0804226921A
S2140165B03A9A2CA88A422892299313460CBF4FF088
S2140165C080430B46102233432B912A931EF01EFE66
S2140165D0FEB95346C8442D932CA948F0804318A809
S2140165E02E93FFF70DFF30B92DB90346A34212D102
S2140165F0002818BF2C2031B0BDE8F08F102751E7D6
S21401660001236BE747F000536EE7212374E701236C
S214016610C6E728ABDEE703F1C0026A4412F8C02CD5
S21401662001331043E2E700BFA2620300B462030035
S21401663010000020B862030004000020F0B5C02955
S2140166409FB0249E4FD0B1F5807F04D0802941D0E1
S21401665029201FB0F0BD40F2344440F21445002E0C
S21401666008BF2C4621271025019401240296039485
S21401667004950597259F069706B102AC0794012459
S214016680089509940A9221220B940C950D92174AAB
S2140166900AAC0E92164A0F94109242F6110211920B
S2140166A0129313941495159201AA1692CBB112ABBC
S2140166B01793042318931123199316AB1A901B935F
S2140166C040F61103C9081C911AA806A91D93FFF7E5
S2140166D097FEBEE7002E14BF4FF486644FF4826423
S2140166E0C0E70EABE4E70F20B3E700BFBC620300D0
S2140166F01000001038B5164B5A6E42F004025A6666
S214016700D3F8802242F00102C3F88022114B5B6865
S214016710C3F3080343B14FF0A842D36B13F0430F02
S214016720FBD11424204638BD4FF0A843DC6B14F08F
S2140167304304FBD1084D2B681BB90421284602F0FF
S21401674059FB2B68013343F000432B60EAE700BF97
S2140167500080005000ED00E0B81E0020014B002034
S2140167605B68704700ED00E04FF40052034B0020D9
S2140167709A660322C3F86022704700BF009000505B
S21401678008B5FFF7E3FBC30708D5FFF759FC062852
S21401679004D00A28F5D1FFF7D9FDF2E74FF40052ED
S2140167A0034B00209A660322C3F8602208BD00BF8F
S2140167B000A000501FB54FF40052164B9A660322F4
S2140167C0C3F86022FFF7C2FBC30710D4012016F0FE
S2140167D0FAFF002814BF6FF092040024FFF7D0FFE1
S2140167E000280CBF20466FF0920004B010BD1022A6
S2140167F0002168461EF00AFD6846FFF701FCDDE948
S21401680000321343029A1343039A1343DED0002443
S214016810E4E700BF00900050012300F01F02A0F53E
S21401682006200949A0F550604009934051F8202000
S2140168301A4341F82020054951F8202022EA030393
S21401684041F82030704700BFBC1E0020D01E00203B
S2140168500121A0F506230F4AA3F550635B0900F05A
S2140168601F0001FA00F052F8231008430A4942F8C3
S2140168702300D1E90030034488680344C8680969E5
S21401688003445B1802BFC2E90033C2E90233136155
S214016890704700BFD01E0020BC1E00202DE9F04F1F
S2140168A0A9B002921F46DDE9328904460822CDE9E5
S2140168B00301414021FA02F34B40980702F1080216
S2140168C018BF9B00202A1C44F4D18123B4FBF3F3A8
S2140168D003EBC313E41A784B04F506241B7804F57E
S2140168E05064002B3CD1FDF7BFFF014620B16FF08D
S2140168F0910029B0BDE8F08F4022059008A81EF04F
S21401690085FC4022059918A81EF080FC6B4EDFF826
S214016910C4A1334603F10F0B102208A9DAF80000D0
S214016920CDF800B005931DF0C5FD00220146059B7C
S214016930103608AD914244D1CDF800B01022DAF8F5
S214016940000018A91DF0BFFD4FF0000B034618AD5F
S2140169505B4542D15A4B9E42DBD10122564B1A70FF
S21401696081250026DFF86CA1A4F50623554AA3F578
S21401697050635B0952F8232004F01F01CA40D20776
S2140169803ED4514A52F82300C84010F001002DD0E1
S214016990002E08BF26468123A4F50724A4F2FF444F
S2140169A0B4FBF3F303EBC313E41A04F50624013D29
S2140169B004F55064D8D1029BD3B1CEB1349B1E608E
S2140169C063E055F8040BCDE906230591FFF724FF94
S2140169D0069A079B05990132ACE755F8040B059317
S2140169E00BF1010BFFF734FF059BB1E7029B13B9CF
S2140169F06FF08B007DE7349B002E45D01E6078E754
S214016A00B8F1000F02D00023C8F80030B9F1000F2A
S214016A1002D00023C9F800304FF0100B00233A468D
S214016A202146DAF80000CDF800B00CF02FFD70BB5F
S214016A30B8F1000F01D0C8F800B03B68234A934272
S214016A402FD1B8F1000F11D0B9F1000F0ED04B467F
S214016A502146DAF8000018AA0CF06CFDB8B9D9F88E
S214016A600030D8F800209B1AC9F80030D7E9022375
S214016A70DDE90310834208BF8A428CD1029B13B121
S214016A807B68012B15D0349B1C60002031E7104B2E
S214016A90984206D01233984203D0133B9842E5D071
S214016AA025E72146DAF800000CF08AFD0028DDD043
S214016AB09EE76FF084001CE76A2B0020006D08003B
S214016AC000710800BC1E0020D01E0020105D175E5D
S214016AD0FFDF00F0040B00202DE9F04F87B082465F
S214016AE0894698461646DDF840B02AB1002B4ED0AE
S214016AF040F26C739A424DD8BBF1010F4DD8002479
S214016B0006F1100739460120059417F098FA054654
S214016B10002845D021463A461EF078FB05ABCDE964
S214016B20014300942B46012250464946FFF7B6FE24
S214016B30044680B110F18C0F08BF6FF08D043A4601
S214016B40002128461EF062FB284617F089FA2046E7
S214016B5007B0BDE8F08F144BC5E902A92B60C5F854
S214016B6004B02EB13246414605F110001EF027FB57
S214016B700E483B462A46059900680CF0EFFB18B90B
S214016B800598FFF749FEDAE76FF09104D7E76FF053
S214016B908604DCE76FF09104D9E76FF08504D6E749
S214016BA06FF08C04D3E700BF105D175E040B002066
S214016BB02DE9F0438DB08146DDE914780C46154683
S214016BC01E469BB1B8F1000F05D16FF08604204632
S214016BD00DB0BDE8F083002FF7D0B7F1005FF4D316
S214016BE0C3F1005303F500439F42EED81022002163
S214016BF008A81EF00BFB002207AB029305AB01931E
S214016C0006AB21460093484608ABCDE90522FFF7BF
S214016C1045FE04460028DAD10599DEB1A94203D81B
S214016C200029D2D115B1D0E70029FBD0491BB142CA
S214016C3028BF3146069B0948C8F8001000913A461D
S214016C40079900682B440CF021FC002818BF6FF050
S214016C509104BCE7A942E9D2B7E700BF040B0020C4
S214016C6030B58DB00C4605461022002108A81EF04E
S214016C70CDFA002207AB029305AB019306AB214682
S214016C800093284608ABCDE90522FFF707FE044628
S214016C90D0B9099B012B1AD0104B079918680CF034
S214016CA08FFCB8B9012207980D49A0F50623A3F574
S214016CB050635B0900F01F05AA4051F823506A4053
S214016CC041F82320FFF7C4FD20460DB030BD6FF01C
S214016CD08404F9E76FF09104F6E700BF040B002087
S214016CE0BC1E00202DE9F04389B00D4614461F4610
S214016CF0DDF8488020B96FF0860009B0BDE8F08362
S214016D000029F8D0002AF6D0B8F1000FF3D0028897
S214016D1002F44F43B3F5824F0CBF13460023DBB298
S214016D2002D06FF08500E8E7122B01D0172BF8D1BF
S214016D3022F0FF02B2F5E24F40D14288C8F80020A7
S214016D40002A36D1E200C8F80020D8F80020B2F5B3
S214016D50807FE6D1122B09BF384B00221A681B69C7
S214016D6005EB040608BFD21800231846224412F881
S214016D7001CD16F8011D0843B1EB0C010CBF4FF015
S214016D80FF3C4FF0000CB5420CEA030343EA010353
S214016D90EDD10028AFD0002BADDA109B9C4249D82C
S214016DA02246294638461EF00AFA119B00201C602E
S214016DB0A3E70732B4EBD20FC7D09CE72A78042AA0
S214016DC099D1621ED2005208B2F5807FC8F8002021
S214016DD0A7D1122B05F1010318BF4FF000094FF0A0
S214016DE0400205934FF000030ABF144E4E46D6F8F4
S214016DF00C90CDE90623FFF7B7FC00287FF47DAFA2
S214016E00CDF80C90D8F800300733DB08029308ABB6
S214016E1013E903008DE80300059B96E8070016F0CA
S214016E208FFC0646FFF7ACFC00287FF466AF002E09
S214016E30B3D060E76FF089005FE700BF1C62030014
S214016E402DE9F041069F0C461646054610B309B3D8
S214016E5002B9FBB96288B3EBD20F4FEAD20819D355
S214016E604C22002128461EF0D1F90D4B27F47E1244
S214016E709A4212D1204616F088FD044638B9424699
S214016E803146281D1EF09BF9C5F824802F60204648
S214016E90BDE8F0816FF08604F9E76FF08504F6E748
S214016EA00002C0032DE9F0410E46144605460028AF
S214016EB040D000293ED012B90020BDE8F081036819
S214016EC01F4823F47E13834237D1AF6BE7B1C7F176
S214016ED0100807F128004245284404D21EF06FF935
S214016EE03C44AC63E8E742461EF069F91022103CC8
S214016EF03C19AA63E0D0284605F1280116F061FD89
S214016F000028DAD14644A863102C0CD9671E27F056
S214016F100F073A463146284616F053FD0028CCD1D5
S214016F20E41BC9D03E442246314605F128001EF036
S214016F3046F9D6E76FF08600BFE76FF08800BCE73A
S214016F400002C0032DE9F04388461F4605468BB074
S214016F5070B169B163B10368234923F47E10884296
S214016F603ED113F47C1FC3F3054604D0102E03D97B
S214016F706FF086042AE0102696422BD8FFF7F4FB22
S214016F80044618BBAB6B05F12802CDE901236B6AF9
S214016F902A1DCDE904231023CDE9083007AB1A4694
S214016FA00390069005F13C0901A904A8CDF81C90B0
S214016FB0FFF70EF90546FFF7E3FB04466DB928B95E
S214016FC03246494640461EF0FAF83E6020460BB06F
S214016FD0BDE8F0836FF08904F8E76FF09204F5E7F7
S214016FE06FF08504F2E700BF0002C00307B56B46E9
S214016FF0054A1068516803C36846FEF78DFA0020FB
S21401700003B05DF804FB00BFC062030013B50024A3
S214017010064A6846536F43F00103536700948DF8A0
S2140170200440FEF7D1F9204602B010BD00400050E2
S21401703030B58BB06C46154D0FCD0FC40FCD0FC4B8
S21401704095E8030084E80300114BD3F84C211203A2
S21401705014D4D3F85041E4B28DF81940FDF7FEFF81
S214017060204480F308008DF818000A48FCF7B2FFA8
S2140170706846FDF719FF00200BB030BD064B1C8893
S2140170804FF6FF739C4208BF7824E5E7C862030009
S2140170900080E00F00F049020001E00F30B5094D15
S2140170A087B001AC0FCD0FC42B6801A82360252340
S2140170B08DF80530FDF7D8FF6420FEF713F80020A1
S2140170C007B030BDF06203006FF00402502110B526
S2140170D00A480B4C12F0800FD3B21BBF03F00F030C
S2140170E0043BA3181B1802F101020CBF83F800131E
S2140170F01976402AEED1002010BD00BF00ED00E059
S21401710000E100E038B501F023F90446E0B901F0EA
S214017110E3F94FF4167343430C4803F5742303F263
S2140171203F23B3FBF0F30A4A0A4913600A220D68AB
S2140171300948013A12F0FF0240F8043BF9D103EB8B
S214017140C3022B4413440B60204638BD40420F0057
S214017150181F0020E81E0020EC1E0020012208B5A2
S214017160034B1A7016F004FF024B186008BD00BFEF
S2140171706B2B0020141F0020F8B5144C237823B382
S21401718016F0F6FE124B134D1B68134EC01A01285B
S21401719038BF0120114B124F18602B7856F8232068
S2140171A046F82300111A3A680E48521A0A213A6024
S2140171B00932B2FBF1F20133DBB20260B3FBF1F24A
S2140171C001FB12332B7000232370F8BD6B2B0020BC
S2140171D0141F00206C2B0020EC1E0020E41E002053
S2140171E0E81E0020181F0020014B1868704700BFDA
S2140171F0181F002020234FF400220A4981F82C335F
S214017200094B5A66094A03F5405303F50050426795
S21401721002674FF48050C1F88401486003445A67FE
S214017220704700BF00E100E000900050010000A0A0
S214017230044B9A6DD20702D40028FAD17047012078
S214017240704700BF00C000500C4B10B51C6FE20722
S21401725007D5012203F500531A67FFF78DFF00F0EB
S21401726033FE14F000521CBF054B1A67002CBEBF3C
S2140172704FF00042024B1A6710BD00BF00C000501D
S21401728000E0005010B5044615F041FF024B1C60AB
S21401729015F041FF002010BD1C1F002010B515F091
S2140172A036FF034B1C6815F036FF204610BD00BFA5
S2140172B01C1F0020034B0222186800238068194611
S2140172C013F068BAFC0B002030B51446054687B0AB
S2140172D0104616F089FC6369024683423CBFD4E936
S2140172E003315B181B1A7BB10F4928460391002115
S2140172F0CDE90131012304940093D4E9001315F07C
S214017300E3FD002007B030BD0122627694F82D20FF
S214017310002AF6D084F835301321E36920469847D1
S2140173202046636A9847ECE7C97201002DE9F047E9
S21401733088B0044688461746994615F0EFFE824601
S214017340002F7AD0237E03F0FF02002B00F0A280EC
S214017350204616F049FC6669B04205D1637ED4E941
S21401736003521544AD1B01E0F9D9851BBD4228BF68
S2140173703D4615F0D3FE94F82D300646002B6DD110
S2140173802A46404661691DF01AFF63692F462B4461
S214017390636121E0037803F0FD0111295BD1216BC4
S2140173A0814205D1A3F111014B424B4184F834309F
S2140173B0013F6369216B01328B4203F1010308BF70
S2140173C02363636195426069E4D1D4E90323216BA9
S2140173D01344994200D122630025D4E9032361694D
S2140173E01344994208BF6261207A6576FDF7C2F8B8
S2140173F0204616F0F9FB6369834232D1257694F86C
S2140174002D30E568656103B125632046636A9847B8
S214017410214B2A4603930023029323692168019393
S2140174200123207A00930494636815F04DFD207AB9
S214017430FDF7C0F8304615F077FE5046C9F80070E3
S21401744015F072FED9F80030002B0CBF1B2000206F
S21401745008B0BDE8F08708F8013BAAE72F460022EE
S214017460B0E70123207A23760DF11E01FDF70AF914
S2140174709DF81E30002BDAD00DF11F01207AFDF7A2
S214017480D9F89DF81F100029D1D12246207AFFF79E
S2140174901BFFCCE71746D0E7C9720100002808DBBE
S2140174A00123420900F01F0003FA00F0014B43F8E4
S2140174B02200704700E100E0002809DB01224309B1
S2140174C000F01F0002FA00F0024A603342F823007F
S2140174D0704700BF00E100E070B504460568FFF79D
S2140174E0DDFE844202D10020FFF7CCFE95F936007E
S2140174F0FFF7E2FF95F93630002B0DDB01215A0923
S21401750003F01F0301FA03F31849203241F8223031
S214017510BFF34F8FBFF36F8F95F93700FFF7CCFF9F
S21401752095F93730002B0DDB01215A0903F01F03B3
S21401753001FA03F30D49203241F82230BFF34F8F91
S214017540BFF36F8F287AFDF755F8287AFCF7B8FF56
S214017550FCF794FF00232846C4E90033C4E904334A
S214017560A360AB6ABDE87040184700BF00E100E0C9
S2140175702DE9F0410C461546064686B0402200210C
S21401758020461F461DF042FE95E8030000232A69A7
S2140175902376EB6884E80300C4E904232A7DE360CC
S2140175A084F82C20AA7D2363012384F8343084F8E0
S2140175B035300C9B84F82D2023620D9BE7616362B6
S2140175C00E9BA3622B7A84F836306B7A84F83730B8
S2140175D02D4B346073602D4BB3602D4B33612D4BB7
S2140175E073612D4BF360FCF791FF38B12B4B98423A
S2140175F004D01024204606B0BDE8F081002104F135
S2140176000800FCF70BFF07460028F2D14FF00108EF
S214017610234B3362234B84F83C80B361224BF361E6
S2140176209DF8403084F8390084F83B309DF83C30B2
S214017630204684F83A30697D84F8388016F0E4FAFA
S21401764095F90900FFF738FF95F90900FFF726FFBE
S214017650164B0494CDE902732369CDE90083636870
S214017660E2682168207A15F02FFC04460028C0D174
S21401767095F90800FFF720FF95F90800FFF70EFFC0
S2140176803046FFF7FFFDB5E759DC02002D73010018
S214017690D7DB0200DDDB0200D9740100038000F0B5
S2140176A0ADDB020009DC0200E3DB0200C972010067
S2140176B02DE9F04101271C46594B86B00293594BE0
S2140176C00C9D0193584B904600930A46CDE90377EB
S2140176D02946564BFFF74CFF064600287BD1236808
S2140176E039462B6463683A206B64637A85F84930BF
S2140176F0237A85F84830E37A85F84B30A37A85F803
S2140177004A30637B85F84D30237B85F84C30E37B2C
S21401771085F84F30A37B85F84E30FDF7BBFA3B4624
S2140177200422617A207AFDF78DFF3B460222E17A38
S214017730A07AFDF787FF39466068FDF7ABFA88F84F
S214017740006041462068FEF7C5F91422637C5B01A0
S21401775003F1A04303F57033C3F81C26617A227A3D
S21401776042EA0142C3F83426E17AA27A42EA0142A9
S214017770C3F82C2685F8506098F81930032B4DD89D
S214017780DFE803F01A022D470123002785F8503061
S21401779000230222617B207BFDF754FF637B227B63
S2140177A0617C42EA0342224B49015A500422236873
S2140177B003F58053DA65AFB9237A2A6C85F8483029
S2140177C0637A052185F84930D36C206843F00403B9
S2140177D0D36415F07FFD304606B0BDE8F081022384
S2140177E085F8503000230422E17BA07BFDF72AFFB9
S2140177F0022741F21C61627C0E4B03EB421047509C
S214017800E07BA17BB13241EA004103EB4213996070
S214017810D2E70323012785F85030B9E72326DAE7B4
S21401782083DD020077DD02000FDE020003DE0200C8
S21401783024D6035000C00350BFF35F8F074B5A6A2C
S21401784022F480325A62D3F8942022F00102C3F85F
S2140178509420BFF34F8FBFF36F8F704700ED00E0AA
S21401786070B52648264CFFF7E7FF844208BF4FF065
S2140178708043244A18BF20F01F03D2F8C01018BF57
S214017880203B21F0FF0141F0A001B3F1005FC2F8F7
S214017890C0100CD31C4D1D4E296843F00103C2F8DD
S2140178A098100131C2F89C60C2F8A0302960844269
S2140178B010D01548164B0268124923F01F0343F0F7
S2140178C00303C1F89820C1F89C30124B0132C1F86D
