:020000021000EC
:10200000C00A0020AD30010023A5020023A5020074
:1020100063B5020023A5020023A5020023A5020048
:1020200023A5020023A5020023A5020023A5020088
:1020300023A50200783103007DA3020023A502003E
:1020400023A5020023A5020023A5020023A5020068
:1020500023A5020023A5020023A5020023A5020058
:1020600023A5020023A5020023A5020023A5020048
:102070003D78010023A5020023A50200412D0100A7
:1020800045A4020023A5020023A5020023A5020007
:1020900023A502008537010023A5020023A5020025
:1020A00023A5020001390100DD38010023A502004B
:1020B00023A502000585020023A50200D98E020097
:1020C000FB270300F7270300D5860200072803003B
:1020D000FF270300B18E020003280300198F0200BE
:1020E000696A0200396C0200858F020023A5020094
:1020F00053B1020023A5020023A5020023A502007C
:1021000023A5020023A5020023A5020023A50200A7
:1021100023A5020023A5020023A5020023A5020097
:1021200023A5020023A5020023A5020023A5020087
:1021300023A5020023A5020023A5020023A5020077
:10214000013800D0FCE7704770B505463E4C8AB0B8
:1021500020B10023008823600AF00AFB3B481FF0EF
:10216000B3FE3B4E3B4B304633603B4B73601CF041
:10217000A4FB0021304610F031FC31A3D3E9002349
:10218000A062C4E906231CF0A0FBD4E9062319438E
:1021900010434FF0FF33C4E90601CDE900014FF0D1
:1021A000FF32A06A1FF0F7FE02224FF0FF31A06A53
:1021B0001FF0F6FE01200AF09BF84FF40073002296
:1021C0002649A06A1FF044FFB0F5007F36D10023F6
:1021D0009422CDE9073309933C23CDE903320593DB
:1021E0009623A06A03A9069310F046FD25B3287C28
:1021F0000AF0DCFC0546E0B9A06A20F00AF80AF013
:102200007DFC0AF057F820B14FF48070002108F0EF
:1022100033FF0AF05FF820B14FF40060002108F0AE
:102220002BFF012010F02EFC0D4A0E49A06A1CF075
:1022300042FB28460AB070BDFF20D9E70725F8E722
:1022400009D5015520000000A80F0020690345ECC6
:10225000DC23002055C90100D0230020D02100201C
:102260005FE802009FE8020010B5054C237833B9FF
:10227000044B13B1044800E000BF0123237010BDDC
:10228000F811002000000000707C030008B5034B2B
:102290001BB10349034800E000BF08BD0000000077
:1022A000FC110020707C0300A3F5803A704700BF4A
:1022B000174B002B08BF134B9D46FFF7F5FF00217E
:1022C0008B460F461348144A121A20F0E9FA0E4BB7
:1022D000002B00D098470D4B002B00D098470020D2
:1022E000002104000D000D48002802D00C4800E039
:1022F00000BF17F077F82000290018F033F817F026
:102300005DF800BF000008000000000000000000B1
:10231000C00A0020400F0020B42900200000000067
:1023200000000000154B37B5186818F00FF908B118
:10233000012820D18DF80700012200211D200DF178
:1023400007030CF073FE044690B9032000F0B6FDBD
:1023500070B10B4D0B49286818F04BFF18F0B0F81E
:1023600018F0AFF89DF807200749286818F041FFDA
:10237000204603B030BD0124FAE700BFCC0A00209C
:1023800094120020482C03004D2C030030B585B07A
:102390000DF10B05012200211D20009503AB0CF06F
:1023A00013FE044668B92A4601211D200CF06CFE7C
:1023B000044630B9044B9DF80B200449186818F006
:1023C00018FF204605B030BD94120020672C030092
:1023D000014B186818F0C3B8CC0A002038B5154B6B
:1023E0001A7832B300221A70FFF79CFF0446D8B166
:1023F000012000F063FDE0B10F4D1049286818F08E
:10240000F8FE18F05DF818F05CF823460C490D4A08
:10241000286818F0EEFE204600F096FD28680A496C
:10242000BDE8384018F0E5BEFFF7B0FF04460028CD
:10243000DED138BDAE28002094120020832C03008A
:102440008B2C0300882C03003D2D03000346034A18
:1024500010680BB118F0F8B818F0F9B8D00A0020DD
:10246000F0B587B00368AB4A23F47F4323F007033A
:102470009342044602AF00F09E810BD8A2F51022D1
:1024800093422ED002F5A022934200F0F58014373B
:10249000BD46F0BDA04A934200F0008102F10172F6
:1024A0009342F4D1B0F805301D2BF0D103890320FD
:1024B000DB0740F1E08100F001FD60B1974C9849E5
:1024C000206818F096FE17F0FBFF17F0FAFF954909
:1024D000206818F08EFEFFF759FF04460028D6D07A
:1024E000B0E0914E30460CF0FBFC054610B38B4C2F
:1024F0008E49206818F07DFE8D49206818F079FE1D
:1025000017F0DEFF17F0DDFF8A4B8B4A00938B49F3
:102510007523206818F06DFE89492B46894A20688A
:1025200018F067FE284600F00FFD8749206818F074
:1025300060FEFEE7022130780CF00CFD044610B37B
:10254000764D7A49286818F054FE7949286818F0C1
:1025500050FE17F0B5FF17F0B4FF764B764A0093A4
:1025600076497A23286818F044FE75492346754A4F
:10257000286818F03EFE204600F0E6FC7249286804
:1025800018F037FEFEE7A02230782346114600946B
:102590000CF0BEFC054610B3604C6449206818F08E
:1025A00028FE6349206818F024FE17F089FF17F011
:1025B00088FF604B604A009360498323206818F0CD
:1025C00018FE5F492B465F4A206818F012FE284625
:1025D00000F0BAFC5C49206818F00BFEFEE702210F
:1025E00030780CF0CBFC054610B34C4C4F492068BA
:1025F00018F0FFFD4E49206818F0FBFD17F060FF52
:1026000017F05FFF4B4B4C4A00934C4988232068DE
:1026100018F0EFFD4A492B464A4A206818F0E9FDB8
:10262000284600F091FC4849206818F0E2FDFEE7DA
:10263000464B186817F08FFFFFF774FE044600281A
:102640003FF449AF012000F039FC00283FF41FAFF0
:10265000324D3F49286818F0CCFD17F031FF17F0D4
:1026600030FF37492346374A286818F0C2FD204614
:1026700000F06AFC3749DAE0032000F01FFC002874
:102680003FF405AF254C2649206818F0B2FD17F03D
:1026900017FF17F016FF30492068C9E0032000F04B
:1026A0000DFC60B11D4C1E49206818F0A2FD17F00A
:1026B00007FF17F006FF2949206818F09AFD1A4C09
:1026C000022120780CF046FC0546002848D0134C27
:1026D0001649206818F08DFD1549206818F089FD0D
:1026E00017F0EEFE17F0EDFE124B134A009313495C
:1026F000A623206818F07DFD11492B46114A206859
:1027000018F077FD284600F01FFC0F49206818F0EC
:1027100070FDFEE7A0000A00A00006019412002050
:10272000482C0300102D0300400D00203C2D030019
:10273000A02C03003E2D0300A52C0300AE2C0300AB
:102740008B2C0300882C0300BA2C0300CC0A002039
:10275000832C03003D2D0300CB2C0300DF2C030052
:10276000022120780CF00AFC054600283FF48FAEC9
:10277000494C4A49206818F03CFD4949206818F046
:1027800038FD17F09DFE17F09CFE464B464A00931D
:102790004649AB23206818F02CFD45492B46454A95
:1027A000206818F026FD284600F0CEFB424920683C
:1027B00018F01FFDFEE7B0F805301B2B15D1827A0B
:1027C0006E46D31D03F4FC73ADEB030D02AD00F1B7
:1027D0000B01284620F0A1F82846384920F08BF854
:1027E00048BB0120FFF732FEB546032000F066FB30
:1027F00060B1294D3249286818F0FBFC17F060FEE3
:1028000017F05FFE2F49286818F0F3FC032000F052
:1028100055FB00283FF43BAE1F4D2949286818F0AE
:10282000E8FC17F04DFE17F04CFEB4F805102868D0
:1028300018F0DFFC2BE62846234920F05CF800283E
:10284000D0D02846214920F07BF8C0B20028CBD058
:102850003D21284620F042F8C0B20028C4D02846C6
:1028600020F053F803A9021F384620F056F83846E6
:1028700016F03AFFB8E700F021FB00283FF407AE5E
:10288000054C0F49206818F0B4FC17F019FE17F03A
:1028900018FE0F4900E700BF941200203C2D0300F2
:1028A000A02C03003E2D0300A52C0300AE2C03003A
:1028B0008B2C0300882C0300BA2C0300F32C03009C
:1028C000482C0300022D0300F82C0300FE2C03000B
:1028D000262D0300034B1B68834202BF0122024BDB
:1028E0001A707047CC0A0020AE28002030B503686B
:1028F0007F4A23F47F4323F00703934289B040F0DB
:10290000F4800822002112207A4B0CF08FFB044641
:1029100010B3794D7949286818F06BFC784928681C
:1029200018F067FC17F0CCFD17F0CBFD754B764A1D
:10293000009376493D23286818F05BFC74492346D0
:10294000744A286818F055FC204600F0FDFA7249D8
:10295000286818F04EFCFEE70146032214206F4B56
:102960000CF064FB044610B3634D6449286818F00A
:1029700040FC6349286818F03CFC17F0A1FD17F0F3
:10298000A0FD604B604A009360494B23286818F013
:1029900030FC5F4923465F4A286818F02AFC20462D
:1029A00000F0D2FA5C49286818F023FCFEE70146E3
:1029B000052216205A4B0CF039FB054610B34E4C3D
:1029C0004E49206818F015FC4D49206818F011FC9C
:1029D00017F076FD17F075FD4A4B4B4A00934B49B3
:1029E0005923206818F005FC49492B46494A2068BC
:1029F00018F0FFFB284600F0A7FA4749206818F0B6
:102A0000F8FBFEE70DF10F0104A80CF053FB0446A0
:102A100010B3394D3949286818F0EBFB384928685C
:102A200018F0E7FB17F04CFD17F04BFD354B364A1D
:102A3000009336496423286818F0DBFB34492346A9
:102A4000344A286818F0D5FB204600F07DFA324958
:102A5000286818F0CEFBFEE79DF8153001468DF88A
:102A600018309DF8143008228DF819309DF8133075
:102A700018208DF81A30FF238DF81B30FE238DF8B7
:102A80001C309DF812308DF81D309DF811308DF8F6
:102A90001E309DF810308DF81F3006AB0CF0C6FAD2
:102AA000054610B3144C1549206818F0A2FB1449D0
:102AB000206818F09EFB17F003FD17F002FD114B84
:102AC000114A009311497423206818F092FB1049B1
:102AD0002B46104A206818F08CFB284600F034FA88
:102AE0000D49206818F085FBFEE709B030BD00BF36
:102AF000A00001004D2D0300941200203C2D030086
:102B0000A02C0300882D0300562D0300AE2C0300DB
:102B10008B2C0300882C0300BA2C03007E2D0300AD
:102B2000822D030010B5234C01F0EEF901F0D4FB27
:102B3000236F23F0070343F00303236717F0CBFE53
:102B40001D4B00209B6A9B075EBF01221B4B9A62B4
:102B5000D4F8203123F0030343F00203C4F82031FA
:102B6000D4F8243123F0070343F00203C4F82431DE
:102B7000D4F8403123F0030343F00203C4F840319A
:102B8000D4F8603123F0030343F00203C4F860314A
:102B9000D4F8403223F0030343F00203C4F8403278
:102BA000D4F8003223F0070343F00203C4F80032E4
:102BB00010BD00BF0080005000C0005000E0005079
:102BC00008B5184B1B68C3F30743012B0ED1164BF6
:102BD00004205A6E4FF480231449520358BF144AFC
:102BE0004B6601F51041086258BF536603F096FA30
:102BF00017F093FC03F024FA18F0A9FA03F042FA54
:102C000018F09FFA03F074FAFFF78CFF03F028FA2C
:102C100017F078FC00F002FB00F084FEBDE80840ED
:102C200003F088BF0080E00F00800050009000504B
:102C300000A0005030B51C4D95B00DAC0FCD0FC4A9
:102C400095E80700032384E807008DF84D30292319
:102C5000164A1749CDE90223164B1024CDE9041377
:102C60004FF480732246002109A806931FF018FE36
:102C70004FF4A020104B0DAACDE907030F238DF8C8
:102C800024300E4B07A90A9320230B9301238DF8C0
:102C900031300B4B0B48009302AB8DF8254003F00D
:102CA00031FD15B030BD00BF743003000000065088
:102CB000000500060008000724000650AF28002089
:102CC0001412002070120020831E012B10B512D8A0
:102CD000012910D8114B04221B6905210020C3F3E0
:102CE000401301F00DFD0E4B1B681868A8B1BDE83C
:102CF0001040436A18478B1E012B0CD801280CD8B2
:102D0000BDE810400022054B05211B691046C3F3A6
:102D1000401301F0F5BC0129E5D910BD00C00350F6
:102D2000C80A002008B50449044803F0C5FFBDE8FF
:102D30000840FFF77FBF00BFC00A002068120020D4
:102D4000014818F0C4BB00BF70120020014B1A6A82
:102D50001868104770120020014817F0F2BB00BF3E
:102D600090300300014817F06CBC00BFA83003008E
:102D70007FB500240368464A23F47F4323F007030A
:102D8000934205468DF808408DF809408DF80A40B9
:102D90008DF80B408DF80C408DF80D406DD002F190
:102DA0008272934271D1B0F80530212B6DD1FF238F
:102DB00004A91A4611E9030017F07BFB012814BF90
:102DC00041F2FC14334B4FF0210108BF187004F09E
:102DD000FC0228790CF040F9064610B32E4C2F491E
:102DE000206818F006FA2E49206818F002FA17F049
:102DF00067FB17F066FB2B4B2B4A00932B494E23A6
:102E0000206818F0F6F92A4933462A4A206818F053
:102E1000F0F9304600F098F82749206818F0E9F9F1
:102E2000FEE71C4B1B78002B2FD028790CF0BAF84A
:102E3000054650B3184C1949206818F0DAF91849BA
:102E4000206818F0D6F917F03BFB17F03AFB154B4A
:102E5000154A009315495423206818F0CAF91449FB
:102E60002B46144A206818F0C4F9284600F06CF884
:102E70001149206818F0BDF9FEE7064B1B7823B115
:102E800004B0BDE8704018F012BC04B070BD00BFC3
:102E9000A0000601CF280020941200203C2D030042
:102EA000A02C030033310300C0300300AE2C03001C
:102EB0008B2C0300882C0300BA2C03000B4B02461A
:102EC0001B788BB10A4B1B78834234BF0020012052
:102ED000084B1B783BB1084B1B7843FA02F212F007
:102EE000010F08BF002070470120F1E7440D0020CA
:102EF000450D0020D0280020460D0020012208B5F5
:102F0000074B1A700022074B1A700422064B1A70E6
:102F10001F22064B1A7003F0EBF9054B186008BD31
:102F2000440D0020D0280020450D0020460D002033
:102F300094120020024B0349186818F05AB900BFD8
:102F4000941200205331030070B50C4C0C49064616
:102F5000206818F04EF903F0CBF90546206803F01D
:102F6000BBF93046FFF7E6FF284603F0B5F92068C5
:102F70000449BDE8704018F03CB900BF941200202D
:102F800055310300573103002DE9F047434D88B018
:102F900001AC0FCD0FC495E80700012584E80700B8
:102FA00001213A2000F0D4FEDFF8FC800121282026
:102FB00000F0CEFE3A4B404601A903938DF8125023
:102FC00001F034FE2B4604220021022001F098FB80
:102FD0002A4629460023022001F092FB02212B46BB
:102FE0000846042201F08CFB042203212B46022018
:102FF00001F086FB4FF002132A4C0226C4F830364B
:10300000A3F58033C4F82C361C230827C4F8346693
:1030100004F5005AC4F81C364FF4487004F028FC3C
:1030200004F580591420CAF8707004F021FC2320A4
:10303000C9F8707004F01CFCB9214046CAF87070E1
:1030400017F0ADFC002330461A461946C9F87070D7
:1030500001F056FB002329461A46304601F050FB8A
:103060002B4631463046002201F04AFB2B46002217
:103070000321304601F044FB404601F027FD0021CA
:103080002820C4F83016C4F82C16C4F83416C4F836
:103090001C1600F05DFE08B0BDE8F0875C3103004F
:1030A00000127A0000C0035000C0055008B500F0BF
:1030B0002DF8124B12498B4212D30020114B1249AA
:1030C0008B4218D3FFF7F4F8186850F8224058687C
:1030D00040F82240013298688242F5D30C33EAE787
:1030E0000022F8E71C6844F8220001325C68A24222
:1030F000F8D30833E4E70022F8E700BF787C030048
:10310000847C0300847C0300847C03004FF4004132
:103110004FF0FF30124B134A10B59A60D3F8882055
:1031200042F47002C3F888200F4A916601F1884189
:1031300001F5005210664FF6DF7050660220C3F8AA
:10314000D000BFF34F8FBFF36F8F08244FF440338D
:103150000648C0F88041D36004600B6110BD00BF19
:1031600000ED00E0002001000090005000E100E0D0
:10317000014B1868704700BFD80A0020084B1B6F2E
:1031800003F00703022B04D0032B05D0012B05D03D
:10319000FEE7044B18687047034BFBE70348704792
:1031A00000800050D80A0020DC0A0020002D3101E8
:1031B00008B5FFF7E3FF054B1B6FC3F30333013380
:1031C000B0FBF3F0024B186008BD00BF0080005058
:1031D000D40A00200048704700B4C404014B1868AA
:1031E000704700BFDC0A0020054B1860054B1B6FC1
:1031F00003F00703032B01D1FFF7DABF704700BFCD
:10320000DC0A00200080005000487047002D31018A
:10321000014B1868704700BFE00A00200020836A55
:1032200010B5B3F5903F0ED21968084A91420AD101
:10323000074C227812F0FD0F04D1DB69984708B9DA
:103240000123237010BD4FF48170FBE707B0CD5E02
:10325000D12800204FF00053074A1A60BFF34F8F68
:103260000649074BCA6802F4E0621343CB60BFF320
:103270004F8F00BFFDE700BF02020FF000ED00E03E
:103280000400FA0505490A681318054883428CBFF3
:103290004FF0FF320B601046704700BFE40A002079
:1032A0000080002037B50468012105463A2000F06F
:1032B0004FFD002301226179207901F021FA1422C7
:1032C0003023217913FB012303F1A04303F570336D
:1032D0001B686279D340DB4303F001032370A379B9
:1032E000022B0ED100F0A4FA2A460749607900F0BB
:1032F000C9FA0123024661792079CDE9003301F052
:10330000A7F9002003B030BD67A5020010B5012267
:1033100043780178847830209A40054B00FB0133D4
:103320001CB942F210015A5010BD41F21001FAE7E7
:1033300000C0035010B50122437801788478302012
:103340009A40054B00FB01331CB941F210015A5061
:1033500010BD42F21001FAE700C003502DE9F04F12
:103360009A46564B85B01B7806460F461546DDF843
:103370003C909DF844B0DDF85080002B00F08D802B
:10338000072A00F28C800E9B002B00F08880B9F198
:10339000000F00F08480129BB3F5006F7FDC0128E2
:1033A00002D1109B002B7AD0454B03EB05131B7BFE
:1033B000002B76D0434C1022002168461FF070FA93
:1033C00004EB45141022002F59D1394620461FF036
:1033D00067FA43F210036380BBF1000F03D1E37877
:1033E00043F00303E370374A0E9B02EB451CCCE924
:1033F0000193129B6901013BC3F30A009DF84C3015
:10340000012E03F003034FEA836343EA001E53587F
:103410002D48CDF800A000EA03004EEA0003535007
:1034200041D113230CF1100ECCF80C309CE80F00A6
:103430008EE80F006FF00301DCF81C20109B61F395
:103440009F02012FCCF81C20CCF8143003D1CCF80B
:103450001890CCF804300027194A290102EB051313
:1034600042F80180159A28465A60694622469F60B4
:103470005E7301F0E5F9384605B0BDE8F08F002134
:1034800020461FF00DFA4FF444736380BBF1000F28
:10349000A9D1E37843F03003A4E70C48ECE70C48EB
:1034A000EAE70C48E8E7B8F1000FD4D19CF8023005
:1034B00068F304138CF80230CDE700BFD228002057
:1034C00098120020181300200F80FFF3028000F0F4
:1034D000018000F0078000F038B5124B05461B78DC
:1034E000DBB1E0B117F013FA0F4A00231146147B49
:1034F00054B92B6001251A0101EB03131D738C5085
:1035000017F00BFA204638BD0133082B02F11002E8
:10351000EDD117F002FA0548F5E70548F3E705484D
:10352000F1E700BFD228002098120020048000F0AC
:10353000028000F0018000F013B517F0E8F90023D5
:103540000B4A147B7CB90133082B02F11002F8D12D
:10355000019001F017F9074B01981C7017F0DDF985
:10356000204602B010BD17F0D8F90348F9E700BFB4
:1035700098120020D2280020058000F00D4B10B5D5
:103580001B78044693B1072812D817F0C0F90A4BEC
:1035900003EB04131A7B2AB100241C7317F0BDF946
:1035A000204610BD17F0B9F90448FAE70448F8E7D7
:1035B0000448F6E7D228002098120020068000F088
:1035C000028000F0018000F0154B13B5186800234D
:1035D00001908DF8043017F09AF9124B1C7824B141
:1035E00017F09BF9104802B010BD01221A7017F0B5
:1035F00094F90E4B01A81C731C7783F82C4083F8B8
:103600003C4083F84C4083F85C4083F86C4083F87E
:103610007C4008238DF8073001F0E0F82046E2E70F
:10362000C8310300D2280020038000F09812002047
:103630000A4A08B512785AB107280BD8084A02EB93
:1036400000131B7B43B1002101F0BAF8002008BD34
:103650000448FCE70448FAE70448F8E7D2280020C9
:1036600098120020028000F0018000F0078000F036
:103670000A4A08B512785AB107280BD8084A02EB53
:1036800000131B7B43B1012101F09AF8002008BD13
:103690000448FCE70448FAE70448F8E7D228002089
:1036A00098120020028000F0018000F0078000F0F6
:1036B0000A4A08B5127852B107280AD8084A02EB1C
:1036C00000131B7B3BB101F009F9002008BD054840
:1036D000FCE70548FAE70548F8E700BFD2280020D4
:1036E00098120020028000F0018000F0078000F0B6
:1036F0000D4B1B7893B1072812D889B10B4B03EB04
:1037000000131B7B73B10A4B1A6D012303FA00F0FF
:1037100010401ABF00200B700870704705487047B2
:103720000548704705487047D228002098120020AD
:1037300000000450028000F0018000F0078000F0DB
:103740000B4A10B512780C4662B107280CD859B153
:10375000084A02EB00131B7B43B101F0D1F8207043
:10376000002010BD0448FCE70448FAE70448F8E7E5
:10377000D228002098120020028000F0018000F082
:10378000078000F02DE9F843174B1F6D5B6D1F405C
:1037900000D5FEE701260025144CDFF85480DFF841
:1037A0005490374217D02368C8F850609BB1A16885
:1037B000284601316268A1609847637B012B0AD1DA
:1037C00048B909EB45131A7B60F341021A731A7F5B
:1037D00060F341021A770135082D4FEA460604F1DD
:1037E0001004DED1BDE8F8830000045098120020D8
:1037F000002004501813002070B5044601250B4E1C
:1038000004B970BD94FAA4F0B0FA80F005FA00F3A0
:1038100006EB001224EA03045368002BF0D0117B5E
:1038200011B191689847EBE79847E9E71814002031
:1038300008B5192000F072FD28B14FF00072074B57
:10384000C3F880211A601A2000F068FD28B14FF0FB
:103850008062024BC3F880211A6008BD00E100E0DD
:1038600038B505460C4617F052F80022044B03EB1E
:1038700005135C601A73BDE8384017F04EB800BFFE
:1038800018140020F8B505460F46164617F03FF805
:10389000104B05F0FC02D3F824140023EC1804F0BC
:1038A0000304144321FA04FC1CF0010F07D0013378
:1038B000042BF3D1FF2417F030F82046F8BDFF2C7D
:1038C000F9D00122044B03EB0413C3E901761A7308
:1038D000F1E700BF00C0035018140020074BD3F8D5
:1038E0002404D3F8202403F50053104000F0553091
:1038F00020F05020C3F82004FFF77EBF00C0035023
:10390000074BD3F82404D3F8202403F500531040C8
:1039100000F0AA3020F0A020C3F82004FFF76CBF0D
:1039200000C00350024B1968024B18680EF06ABCC5
:10393000EC0A0020E80A002037B5920004460D4644
:1039400001921FF079F9431C0BD060B9294620463B
:10395000019A1EF06EFF0028044808BF002003B043
:1039600030BD0348FBE70348F9E700BF10E000F073
:1039700021E000F024E000F013B5044601A801F0B6
:1039800063F89DF80630012223804FF480730020F5
:103990006380054B9B680A3303F01F0302FA03F3AD
:1039A000636002B010BD00BF0080E00F10B5044698
:1039B0001FF03AF9431C15D0B0B90C4B20469B6858
:1039C0000A3303F01F020123934023F0030323442F
:1039D000984201D1002010BD50F8042B0132F7D0DD
:1039E0000348F8E70348F6E70348F4E70080E00FF0
:1039F0000EE000F021E000F024E000F008B516F041
:103A00007FFF014B186008BD581C0020014B18684F
:103A100016F07ABF581C0020044BD3F88420D2063D
:103A2000FBD4D3F88400C0F38110704700400050ED
:103A300038B5104B0546D3F820310C4603F003038C
:103A4000022B0BD0032B0DD0012B0FD1FFF790FBD6
:103A5000052305B1286004B1236038BDFFF7BEFB24
:103A60000323F6E7FFF7D0FB0223F2E70023184613
:103A7000EFE700BF0080005073B50D4600210E4BEC
:103A80000191D3F88041064604F00304012C09D0CB
:103A9000022C0CD00C460EB1019B336005B12C609A
:103AA00002B070BD01A8FFF7C3FF0F24F3E7FFF7D3
:103AB000ABFB0190EFE700BF0080005038B5174B1B
:103AC0000546D3F824310C4603F00703013B052BD0
:103AD00020D8DFE803F0030F171B0B13FFF748FB99
:103AE000052305B1286004B1236038BDFFF740FB12
:103AF0000623F6E7FFF772FB0323F2E7FFF76EFBFF
:103B00000423EEE7FFF780FB0223EAE716F00AFD45
:103B10000723E6E700231846E3E700BF00800050D4
:103B200038B5104B0546D3F840310C4603F003037B
:103B3000022B0BD0032B0DD0012B0FD116F0F4FC70
:103B4000092305B1286004B1236038BDFFF760FB8D
:103B50000823F6E716F0EBFC0B23F2E700231846E8
:103B6000EFE700BF0080005038B5134B0546D3F88F
:103B700000320C4603F00703013B032B18D8DFE8A3
:103B800003F0020A0E1216F0CFFC092305B12860DB
:103B900004B1236038BDFFF73BFB0823F6E716F0BE
:103BA000C6FC0B23F2E7FFF703FB0E23800AEDE7C9
:103BB00000231846EAE700BF0080005038B5104BDC
:103BC0000546D3F840320C4603F00303022B0BD01A
:103BD000032B0DD0012B0FD116F0A6FC092305B144
:103BE000286004B1236038BDFFF712FB0823F6E715
:103BF00016F09DFC0B23F2E700231846EFE700BF09
:103C00000080005038B5104B0546D3F860310C46A3
:103C100003F00303022B0BD0032B0DD0012B0FD18C
:103C200016F082FC092305B1286004B1236038BD79
:103C3000FFF7EEFA0823F6E716F079FC0B23F2E71C
:103C400000231846EFE700BF0080005010B40D4C71
:103C50000B46D4F8204204F00304012C0AD0022CB5
:103C60000CD008B1002101600BB100221A605DF890
:103C7000044B70475DF8044BFFF7DABE5DF8044B68
:103C8000FFF74EBF0080005038B50C46054616F0D1
:103C900037FE064B9A6A82EA040101EA05045440A1
:103CA0009C62BDE8384016F02FBE00BF00C0005037
:103CB000B0F5207F1FD009D8B0F5007F15D003D80C
:103CC00068B1B0F5C07F0AD000200CE0B0F5607F8D
:103CD000FAD10B4BD3F88000C0F3011003E0084B7E
:103CE000186FC0F3033001307047054BD3F89000D4
:103CF000C0F30460F7E7024B186FC0F38020F2E7CF
:103D0000008000504FF400320E4B014610B50020E9
:103D10009A66FFF7CDFF41F6713248430A490B4BD3
:103D200088428CBF4FF480100020DC69DA639A6807
:103D300022F4401202439A60E20344BF0022DA6395
:103D400010BD00BF00900050005A620200000350F6
:103D5000420910B510D0012A10D00B4B0B4C022A8F
:103D600018BF234600F01F0051B103F58053012214
:103D700002FA00F0186010BD1346F3E7044BF1E7B8
:103D800003F50053F3E700BF6880005060820050E5
:103D90006480005008B5802016F0D5FC034B984293
:103DA0009EBF4FF48032024B1A6708BD005A620270
:103DB00000A000501FB50023B0F5807F019377D09D
:103DC00028D8382800F094800BD82438092810D837
:103DD00009280ED8DFE800F0676767670D0D620DF0
:103DE000377D52285FD008D83D283BD03E2800F0D0
:103DF0008480019805B05DF804FB8028F9D1414B1F
:103E00001B6F03F00703013B032BF2D8DFE803F03D
:103E100044413F6CB0F5D06F5BD019D8B0F5A06FBE
:103E200066D00AD8B0F5806F3DD0B0F5906FE0D184
:103E3000002001A9FFF742FEDBE7B0F5B06F2DD0FF
:103E4000B0F5C06FD5D1002001A9FFF769FED0E71A
:103E5000B0F5006FECD00AD8B0F5E06F4DD0B0F5FA
:103E6000F06FC6D1002001A9FFF7CCFEC1E7B0F585
:103E7000086FBED1234BD3F8003103F00303022BAC
:103E80002CD0032B2ED0012B30D1FFF7A7F9032321
:103E900000E005230193ACE70223FBE7002001A922
:103EA000FFF7EAFDA5E7002001A9FFF7C1FDA0E7A4
:103EB00002934FF0E0231B695B0705D5FFF778F904
:103EC0000C230393039BE5E703A902A8FFF728FE51
:103ED000F8E7002001A9FFF747FE8AE7FFF798F906
:103EE0000823D7E716F01EFB0723D3E70123D1E70A
:103EF000002001A9FFF7AAFE7BE7002001A9FFF738
:103F00005DFE76E7008000504FF40022034B5A66B6
:103F1000012203F580439A62704700BF0090005071
:103F200008B5FFF747FF082811D00938012811D834
:103F30004FF40012094B4FF6FF705A6603F5D83361
:103F40005B6A13F0010F18BF4FF4FA7008BD044B01
:103F50001888FBE74FF6FF70F8E700BF00900050AD
:103F60002C0D002070B504468020FFF723FF0328A6
:103F700000F082804FF40022444B02215A6645F63D
:103F80000E03434AC2F88030424B9962012103F587
:103F900080539962936DD903FCD4D4E900131B05B7
:103FA00043EA0163E17B94F822500B43217B94F8B0
:103FB000236043EA0143617B43EA0133A17B43EA87
:103FC000811313619169D4E904031B0643EA8063FA
:103FD00001F000410B43A17EE07E0B43217E43EACA
:103FE0000143617E43EA01239361E369126A002B76
:103FF0000CBF0021082122F00D0242EA030242EA2E
:104000008002234B42EA01021A6294F820204FEA10
:10401000421232D1986A94F8211020F0330042EA1B
:104020000112024342F001029A621B4A996D32EA80
:104030000101FBD1022217498A621A659A6D52006A
:10404000FCD41869A26820F4700040EA02504FF0D6
:10405000004218610F4B9A611DB9022203F580538B
:104060009A6216B901220D4B9A6294F824301BB162
:10407000074B0B4AC3F8802070BD996A21F03301C9
:1040800031430A4342EA4502EEE700BF0090005088
:1040900000C0005000D000500300014000E000507C
:1040A000F1A7FFFF13B5194CA16AA36D13F4803F6C
:1040B00018BF0122164B18BF9A6202229A621A6533
:1040C000A36D5B00FCD4134BA26993F9003022F47A
:1040D0007F020344000222F47F4280B283F308038C
:1040E000104340EA0340A06102200191FFF7CCFD9C
:1040F000A36D019913F4803F05D0012002B0BDE803
:104100001040FFF7C1BD02B010BD00BF00C000509D
:1041100000D00050D3280020014B93F900007047D5
:10412000D3280020F0B5D0E901434FF480061A4AA5
:104130004178057856664FF4D156022702F5B83219
:104140005662164E4F2977604FF0010728BF4F2166
:1041500006F5805677601669F603FCD441EA05211E
:1041600051611B01417B43EA04230B43017B43EA7A
:1041700041039360C37B817B1B0143EA4113417C74
:104180000B43017C43EA41035360837C13B16FF41A
:10419000D1535362F0BD00BF009000500010025098
:1041A000014B1880704700BF2C0D00204FF4001207
:1041B00008B5184B5A660223174A5360936813F4E4
:1041C0008033FBD1012822D1FFF708F8134B984226
:1041D00015D003F5122303F5F863984213D0104B62
:1041E00000EB8002400AB3FBF0F0520A0A4BDA629D
:1041F000012218635A620022074B5A6008BD45F637
:104200007A10084AF2E745F61A00074AEEE75362C9
:10421000F1E700BF009000500040025000F049025A
:1042200064666666D8B80500BBCF0500B0F5207F90
:1042300010B50C4642D008D8B0F5007F33D003D873
:1042400088B1B0F5C07F0ED010BDB0F5607FFBD156
:104250001F4B013CD3F8801021F0300141EA0414D7
:10426000C3F88040F0E716F066FA16F02FFB4FF423
:104270008031184A164B1167196F013C21F47041C7
:1042800041EA04341C67FEF793FF0446FFF7C4FBC2
:10429000C0F10201204616F013FB00F02DF8BDE836
:1042A0001040FFF777BD0A4B013CD3F8901021F086
:1042B000F85141EA0464C3F89040C5E7044B013C5F
:1042C000196F21F4806141EA84241C67BCE700BFB8
:1042D000008000500090005008B50121022000F03D
:1042E000DBF816F028FA16F0F1FA4FF48032014BA1
:1042F0001A6708BD0090005008B54FF4C07016F062
:1043000022FABDE80840044988428CBF02210121FD
:104310004FF42070FFF78ABF80F0FA02054B420984
:1043200053F8223000F01F0023FA00F0C04300F0E1
:104330000100704700E100E0194B10B51B6873B332
:10434000184A5268012A2AD0174A8020C2F8003140
:10435000FFF730FD05281FD14FF4C070FFF7A8FC10
:104360000128044604D102214FF4C070FFF75EFF1C
:1043700007220E4B1A610122A3F580535A60094AA5
:104380001369DB07FCD5012C09D12146BDE810409B
:104390004FF4C070FFF74ABF0122054B5A6010BDB1
:1043A0000C1D002000C001500080005000E00150B2
:1043B00000D0015000224FF40031074B1A60074A29
:1043C000516602F598325268012A02BF044AD2F8B7
:1043D00000211A60704700BF0C1D002000900050A3
:1043E00000800050044A4178536F23F4407343EA3D
:1043F00001235367704700BF0040005010B50446CA
:1044000008B1FFF7D7FF0E4A136943F004031361A5
:1044100002F046FE16F084FA16F072FA1EF0FCFB6B
:1044200016F072FA16F07DFA02F04EFE1CB1BDE8ED
:104430001040FFF781BFBDE81040FEF7B9BE00BFD6
:1044400000ED00E010B5044608B1FFF7B3FF0C4AD9
:10445000136943F00403136102F022FE16F050FAD0
:104460001EF0DAFB16F050FA02F02EFE1CB1BDE889
:104470001040FFF761BFBDE81040FEF799BE00BFD6
:1044800000ED00E0034A0179D36E23F030030B43C3
:10449000D366704700400050F8B504461C4BD3F873
:1044A0008420D106FBD4D3F88430C3F381139C421B
:1044B0002CD0FEF763FE012C064602D1214616F0F1
:1044C000FFF916F01DFA4FF00072124B07465A66BC
:1044D000204616F02BFA4FF480630D4D621E934078
:1044E0002B676B6E9A0103D4D5F884309B060AD5EE
:1044F000384616F009FA022C08D13046BDE8F840DB
:10450000002116F0DDB9D5F88430EAE7F8BD00BF28
:10451000004000500060005007B518B90191FEF747
:104520002DFE0199064B1B7843B1064B984205D8E6
:10453000012003B05DF804EBFFF7AEBF0220F8E7FF
:10454000D4280020005A62020278034B0121002087
:104550001A70FFF7E1BF00BFD42800204FF00042DF
:1045600010B501244AF6CD31154B5A66154A03F5AC
:104570000B2354605A6C1964224088B9996811F071
:10458000010F114903D08C60D86AC007FCD5012304
:104590004B6012B10D4B0E4A1A641DF016FD10BD92
:1045A000D96A0907FCD42021074B59620121A3F5E0
:1045B0008053996005494B6A9B06FCD5E9E700BF2B
:1045C0000090005000500950006009500040095010
:1045D0003254FFFF4FF0004238B5194B194C5A6660
:1045E000012203F50C235A604AF6CD33656C23642F
:1045F0004378154093401343134AD363A3688278EA
:1046000023F0740343EA0213C278002A14BF042281
:1046100000221343A3600279837943EA02232361D2
:104620004279C37943EA022363610078FFF796FF7A
:104630000DB1064B23641DF0C8FC012038BD00BF3E
:104640000090005000400950004000503254FFFFDD
:10465000072AF7B501F0030614461F464FF0030181
:104660002CD89500A94000FA05F21C48019116F0DB
:104670005EF901991A4806FA05F216F058F9194B35
:1046800019499DF82000002F08BF1946012303FA9D
:1046900004F40C60154B1649002808BF0B461C603B
:1046A000144B9DF82400C3F820441031A3F6DC33EA
:1046B000002808BF0B461C6003B0F0BDA2F108053E
:1046C000AD00A94000FA05F20B48019116F02FF950
:1046D00001990A4806FA05F2CFE700BF00C403506B
:1046E00008C4035010E4035010D4035014D40350F2
:1046F00014E4035000E0035004C403500CC40350FE
:10470000F8B504460D461F4616464AB101238B40B4
:104710003021194A01FB0022FFB141F21001535030
:1047200004EB4403072D4FF00F014FEA031317D892
:10473000A80006FA00F281401048184416F0F7F875
:1047400056B9012130230C4801FA05F503FB04009A
:1047500077B141F21003C550F8BD42F21001DEE717
:10476000A5F10800800006FA00F281400448E4E761
:1047700042F21003EFE700BF00C0035004C0035033
:104780000CC003504FF400120B4B10B5C3F880203F
:10479000BFF34F8FBFF36F8F0024FF22074B2146DB
:1047A0005C6520209A625C60FFF7D2FA2146BDE882
:1047B00010402120FFF7CCBA00E100E000000450D7
:1047C000044A054B002918BF1346012202FA00F0E3
:1047D00018607047402004504010045010B501216B
:1047E00004462020FFF7B4FA01212120FFF7B0FA98
:1047F0000122114B5A60227812069A606178A278E1
:1048000042EA01429A61FF229A6200229A631A6484
:104810004FF000425A654FF0FF324FF4001103F59C
:1048200000531A65054AC2F88011E3781B01DBB218
:1048300082F81533116010BD0000045000E100E063
:104840002DE9F04101250C46C3B2DFF888E0D1F82C
:1048500000809D408F7ACB7A94F80DC0097BCEF80A
:1048600050500EF5005E4EF820804FF0300E184E7E
:104870001B050EFB006043EA074343EA415322F065
:104880000302C0F860C0C365026716F040F8736D9C
:104890002B437365237A13B1336C2B433364637AF0
:1048A00013B1B36B2B43B3632279A37943EA024379
:1048B000084A93616179E37943EA014306498B61D0
:1048C000034B55639D64BDE8F04116F026B800BF68
:1048D00000000450002004500010045010B50124C2
:1048E000C0B2844016F013F8044B5A6D22EA040259
:1048F0005A659C62BDE8104016F00FB800000450E5
:1049000010B50124C0B2844016F001F8074BDA6AF2
:10491000224209D15B6B34EA03030CBF012400245B
:1049200015F0FBFF204610BD0024F9E700000450FD
:104930004FF40032054B9A6641F6713203F51C3391
:10494000DA63012203F50053DA60704700900050EB
:1049500041F671320121064BDA6303F50052D16052
:104960000022DA634FF40032A3F518339A667047D9
:1049700000000350CB784A7810B55B010C7843EA0D
:1049800082030A79234343EA02130C22424302F1D1
:10499000B0421363012C02BF8A78024B43F82020F7
:1049A00010BD00BFE880035008B54FF0B0435A680F
:1049B00002B960B15B680BB115F0CAFF4FF0B041AE
:1049C00030B10120074B586015F0C2FFC86008BD28
:1049D00015F0BEFF0223CB6015F0BAFF0122024B97
:1049E0005A60F4E700100058002000584FF0B04320
:1049F0005B6870B50BB115F0ABFF0121104B45782A
:104A0000596083780679002BC37814BF02240024F0
:104A1000002B14BF042200224379DB0043EA061373
:104A20002B43234313434FF0B0429360054B59602F
:104A30000378002B14BF0B460223D36070BD00BF68
:104A400000200058001000584FF48032064B5A6680
:104A500003F5E6235B69C3F38512827003F03F021E
:104A60001B0B4270037070470090005070B50546F4
:104A700016461C4621B94FF4207015F064FE01461D
:104A8000402C1BD003D8DCB1202C1BD070BD602C77
:104A9000FCD1042303FB06F2560806EB4113B3FBDB
:104AA000F2F3094A203B02EAC303AA6822F060023B
:104AB000AA60AA681443AC60EB61E7E70623E9E764
:104AC0001023E7E70823E5E7F8FF7F00012200F560
:104AD000805310B55A6040F6AA6341F20502436163
:104AE00000230E498360C365C26000F50052036174
:104AF000C361C36491640A498365884202D0094C4A
:104B0000A04207D18842036502D0064B984201D1EA
:104B1000002343650123536010BD00BFFFFF010068
:104B200000C005500000065070B50D46FFF7CEFFDF
:104B3000012300F580567360AB7C04461BB183688B
:104B400043F080438360EB7C5BB1354A2B7D94421C
:104B500045D1A2F51032C2F88C31E36D43F08003E9
:104B6000E3652A8A6B7B20461343EA891343E3609B
:104B70002B7BD5E90112FFF779FF6B7D1BB1A36891
:104B800043F48033A360AB7D1BB1A36843F40043BF
:104B9000A360EB7D2A7E1B07120502F4E00203F0FE
:104BA000E0431343A365697E1D4A8B1E012B1D4BF9
:104BB0001FD894421BD002F5804294420CBF0122C0
:104BC0004FF0FF3203EB4213022041F21C62032933
:104BD000985020D10423F3652B78636170BD124A8D
:104BE000944204BFA2F52032C2F89C31B5E70022FE
:104BF000E8E794420DD00C4A94420CBF01224FF0DA
:104C0000FF3203EB4213022042F21C62012998504A
:104C1000DFE70022F5E7042204F50053DA65DBE75D
:104C200000C0055000C003500000065038B50D46C6
:104C3000FFF74CFF0122A97B00F580535A602A8AB6
:104C40008368002914BF4FF48061002142F0010203
:104C500013432A7D0B43002A14BF4FF00052002259
:104C600083608368044613438360AB7C5BB11D4A59
:104C7000EB7C90422DD1A2F51032C2F88C31E36D5D
:104C800043F08003E3652B7B2046D5E9011243F412
:104C90008053E36015F064FE6B7B0BB110236361FE
:104CA0006B7D1BB1A36843F48033A360AB7D1BB164
:104CB000A36843F40043A360EB7D2A7E1B07120523
:104CC00003F0E04302F4E0021343A3652B78636131
:104CD00038BD054A904204BFA2F52032C2F89C318B
:104CE000CDE700BF00C005500000065038B50446AF
:104CF000054D1DF090F90FCC0FC594E8030085E831
:104D00000300002038BD00BF101D002047F6FF73D0
:104D10009A42F0B567D0012967D8354DCF0015F814
:104D2000313005EBC100012B847813D10025C37805
:104D30001B1B9D4202D3E018C0B2F0BD591B466850
:104D4000A3EB510136F911609642D4BF0D4601F133
:104D5000FF33EEE740680028EFD0B0F9003093420F
:104D600004DBB0F902309342B8BF134682883D4459
:104D7000FF2A19BFC8214FF0280CB0F90610B0F96E
:104D800008C0A1EB03020CBF0126002692FBFCF237
:104D90006D78324412B2954201DD002A01DA6A1EB2
:104DA00012B24FF47A7700EBC206F188B66801328E
:104DB00013FB016112B221EAE17101F5FA7195422A
:104DC000B1FBF7F104DD00EBC206B6888E42EAD2F1
:104DD00000EBC20232F8040C884228BF0846A04209
:104DE00038BF2046A8E7FF20A7E70020A5E700BFBF
:104DF000101D00200129F0B553D82B4800EBC10449
:104E000010F83110636801290FD1E078A47890423E
:104E100094BFC4EB0001C4EB0201001BCAB2824282
:104E2000C8BF002233F91200F0BD002B39D0A178A1
:104E3000914202D3B3F90200F6E7E178B3F900003A
:104E40009142F1D999886478A1F1FF06013C714241
:104E500003F10405E4B2714103F10C071FFA82FC6F
:104E6000CEB2B44216D805EBC1014FF47A756A434D
:104E7000B1F902404968521A04EBD47102EB6102A5
:104E800092FBF4F29042CFDBB3F902009042CBDC0C
:104E900010B2C9E737F831E04E1CE645E3D331469E
:104EA000DEE70248C0E700BF101D00200080FFFFC2
:104EB00008B50448FFF71AFFBDE8084001201DF0BF
:104EC000AEB800BFF0310300004870472E0D00203F
:104ED0007FB50222084B0949CDE901234FF0007349
:104EE000CDE90313052301A94FF0FF3005931DF011
:104EF000CCF807B05DF804FB006A1800000204005B
:104F00001B0603F0706300F00F000902034301F475
:104F10007061120402F470220B431343014A1360C0
:104F2000704700BF0020025C60B5054619B1013929
:104F3000B1F5806F10D2094EF06810F48030FBD1CB
:104F400043EA0121120741EA050302F080521343AC
:104F500043F00043736060BD0120FCE70020025C69
:104F60000122054B9A60DA68D203FCD4D86820F09D
:104F70000F000004000C70470020025C014B186811
:104F8000704700BF0040025C014B5868704700BF8B
:104F90000010025C014B186B704700BF0010025CF0
:104FA000014B1868704700BF0010025C014B98600D
:104FB000704700BF0010025C014B1864704700BFCF
:104FC0000010025C014B5864704700BF0010025C87
:104FD000014B5863704700BF0010025C0022014B78
:104FE0001A6070470010025C024A136843F0010324
:104FF000136070470010025C43F20402014B1A6018
:10500000704700BF0010025C024A136843F030038F
:10501000136070470010025C044B1A6842F48072FF
:105020001A601A6822F480721A6070470010025CDD
:10503000024A136843F48063136070470010025CF7
:10504000034A136823F4702343EA0040106070475A
:105050000010025C044B1A6902605A6942609A6946
:105060008260DB69C36070470010025C0268044B19
:105070001A6142685A6182689A61C268DA6170474F
:105080000010025C024B1A6BD207FCD41862704706
:105090000010025C024B186B00F00E00704700BF5E
:1050A0000010025C82B01FB507930A9B04AC8B42D0
:1050B00028BF0B4604E907001048D100079948BFF4
:1050C00003330160099948BF23F0030323F07043C1
:1050D00001F0E041194341F000518160002102F0EC
:1050E000E042019C134343F00053C16004618361BB
:1050F000416304B0BDE8104002B070470000025C9C
:105100003F22034B1A631022DA6103229A6370472D
:105110000000025C024AD36B9B07FCD4704700BFBF
:105120000000025C034B986A10F0240018BF0420B2
:10513000704700BF0000025C08B5FFF7F3FF064BA5
:10514000DB6B23F47F4323F0EF0303431EBF0122F5
:10515000024BC3F8FC2F08BD0000025C00F0FF3FCB
:10516000032208B5054B186019615A63FFF7C8FFA1
:10517000FFF7D0FFBDE80840FFF7DEBF0000025C8C
:1051800042680346182A10B50AD0202A1DD0102ADA
:105190002BD1174AD2F80424D4010AD4012013E0F9
:1051A000134AD2F804249001F8D50A6842F00802A4
:1051B0000A6010481A6882424FF000000ED10A6857
:1051C00042F040020A60586010BD094AD2F8042437
:1051D0005201E3D50A6842F00402E9E7064CA24214
:1051E000F2D10A6842F08002ECE70720ECE700BF4A
:1051F0000000025CD5280020D628002013B5084CFA
:10520000D4F80444E40508D5009313460A46014641
:10521000002000F01BF802B010BD0120FBE700BF2A
:105220000000025C13B5084CD4F80444E40508D52A
:10523000009313460A460146002000F02BF802B006
:1052400010BD0120FBE700BF0000025CF0B5164670
:105250005A688DB0102A0D46129F15D17A68102A0F
:1052600012D10A4A09AC07CA84E807002246294637
:10527000CDE90547CDE90344CDE901440448009652
:1052800015F088FC0DB0F0BD0720FBE77432030079
:1052900030000100F0B516465A688DB0102A0D4650
:1052A000129F15D17A68102A12D10A4A09AC07CA8E
:1052B00084E8070022462946CDE90574CDE9034478
:1052C000CDE901440448009615F064FC0DB0F0BD32
:1052D0000720FBE7743203001000010070B598B09E
:1052E000002843D02C4C08AD0FCC0FC50FCC0FC5F8
:1052F0000FCC0FC594E80F0085E80F006D4604AE93
:1053000004F1100320340FCB85E80F0094E80F0060
:1053100086E80F00FFF780FE0420FFF791FEFFF7FD
:105320006BFE3046FFF7A2FE002408AE56F8040BD1
:105330000134FFF7A7FE102CF8D1FFF725FE032854
:10534000FBD90024FFF74AFE2646FFF717FE55F863
:10535000043B01365840042E44EA0004F5D12CB138
:10536000012206200D4B1A7018B070BDFFF754FED5
:105370000820FFF71BFE0020FFF71EFE0720FFF7A7
:1053800021FE4FF40070FFF723FE0820FFF758FEC0
:10539000FFF72AFE0020E7E754330300D828002057
:1053A00008B5FFF739FE0122014B1A7008BD00BF96
:1053B000D728002030B589B005AC84E80700FFF796
:1053C000E9FDC30501D5FFF7EBFF0A4D2B781BB1B3
:1053D00015F042FD00232B70074B069AD3E901011B
:1053E0008DE8030002921B6894E8070015F0B0FCFA
:1053F00009B030BDD7280020B43303001FB515F025
:105400002BFD044630B1012206240D4B1A702046B4
:1054100004B010BDFFF7B2FD0090FFF7AFFD0190A3
:10542000FFF7ACFD0290FFF7A9FD03906846FFF778
:105430001DFEFFF7B5FFFFF7E7FDFFF7F9FDE6E714
:10544000D828002005289ABF014B185C002070471F
:10545000C033030030B5154B87B00293144B039053
:10546000049346F611030D46059300F06DF91428D8
:10547000044616D1684615F09FFD4FF0A84303225D
:1054800002A95A6319601D619A63DA6B9207FCD115
:10549000142C02D1684615F09DFD00F089F90446F0
:1054A00001E00028E9D0204607B030BD281D0020CB
:1054B000040000202DE9F04FB1B005468C46E946C6
:1054C0006E4F3B9EDDF8F8E0409C07F1100AC8469D
:1054D000386879680837A8E803005745C146F6D10F
:1054E0000EEB0208C8F1000909F00F09002E00F0C8
:1054F000AF80774207F00F070121DDF8FCB0C4F15F
:10550000100ACDF810B0059144F0005106914FEA11
:105510000A2101F4F85141F02101079106B96B46C7
:105520000893002D40F09680002C00F0938004AB8F
:105530000993002E00F0908046F000530A93002D4E
:1055400040F08D80002C14BF0123212343EA072360
:105550000B9308A942F00053CDF830C03D980D914F
:105560000E934FEA092343F041030F93109002B1C9
:105570000CA9002A16BF00224FF00052412342EA34
:105580000E021191129213933C9B3D4A149310AB5F
:1055900015933C4B0021169340F6110317933A4B99
:1055A000002D08BF1346189314AB1993374B1022E4
:1055B0001A9311231B931CAB18461DF071F901229D
:1055C0001D924AF080421E9200220346239205B9A2
:1055D000EB46102C08BF01230DF1900A1022002188
:1055E0005046CDF880B0219322941DF059F9002C3B
:1055F00037D020AB002125938F4218BF534647F088
:10560000804226923A9A2CA88A42289229931346DD
:105610000CBF4FF080430B46102233432B912A934B
:105620001DF03EF9FEB95346C8442D932CA948F00D
:10563000804318A82E93FFF70DFF30B92DB903460C
:10564000A34212D1002818BF2C2031B0BDE8F08F42
:10565000102751E701236BE747F000536EE7212342
:1056600074E70123C6E728ABDEE703F1C0026A4412
:1056700012F8C02C01331043E2E700BFC633030029
:10568000D833030010000020DC33030004000020A6
:10569000F0B5C0299FB0249E4FD0B1F5807F04D0D3
:1056A000802941D029201FB0F0BD40F2344440F29F
:1056B0001445002E08BF2C462127102501940124F3
:1056C0000296039404950597259F069706B102ACB0
:1056D00007940124089509940A9221220B940C95B1
:1056E0000D92174A0AAC0E92164A0F94109242F687
:1056F00011021192129313941495159201AA169205
:10570000CBB112AB1793042318931123199316AB43
:105710001A901B9340F61103C9081C911AA806A9F8
:105720001D93FFF797FEBEE7002E14BF4FF486646B
:105730004FF48264C0E70EABE4E70F20B3E700BF8D
:10574000E03303001000001038B5164B5A6E42F0DB
:1057500004025A66D3F8802242F00102C3F8802284
:10576000114B5B68C3F3080343B14FF0A842D36BFE
:1057700013F0430FFBD11424204638BD4FF0A8434B
:10578000DC6B14F04304FBD1084D2B681BB90421DA
:10579000284602F059FB2B68013343F000432B608D
:1057A000EAE700BF0080005000ED00E0281D002067
:1057B000014B00205B68704700ED00E04FF40052A1
:1057C000034B00209A660322C3F86022704700BF93
:1057D0000090005008B5FFF7E3FBC30708D5FFF7BB
:1057E00059FC062804D00A28F5D1FFF7D9FDF2E7C5
:1057F0004FF40052034B00209A660322C3F8602244
:1058000008BD00BF00A000501FB54FF40052164B5A
:105810009A660322C3F86022FFF7C2FBC30710D4C5
:10582000012015F026FB002814BF6FF0920400241D
:10583000FFF7D0FF00280CBF20466FF0920004B0A5
:1058400010BD1022002168461DF02AF86846FFF7B7
:1058500001FCDDE900321343029A1343039A134318
:10586000DED00024E4E700BF00900050012300F0E8
:105870001F02A0F506200949A0F550604009934099
:1058800051F820201A4341F82020054951F82020E2
:1058900022EA030341F82030704700BF2C1D00208E
:1058A000401D00200121A0F506230F4AA3F55063F7
:1058B0005B0900F01F0001FA00F052F823100843C2
:1058C0000A4942F82300D1E90030034488680344C0
:1058D000C868096903445B1802BFC2E90033C2E922
:1058E00002331361704700BF401D00202C1D0020B3
:1058F0002DE9F04FA9B002921F46DDE93289044636
:105900000822CDE90301414021FA02F34B409807F8
:1059100002F1080218BF9B00202A1C44F4D1812305
:10592000B4FBF3F303EBC313E41A784B04F506243A
:105930001B7804F55064002B3CD1FDF7F3FF0146C2
:1059400020B16FF0910029B0BDE8F08F40220590A2
:1059500008A81CF0A5FF4022059918A81CF0A0FF7C
:105960006B4EDFF8C4A1334603F10F0B102208A9D8
:10597000DAF80000CDF800B005931CF0ECF8002236
:105980000146059B103608AD914244D1CDF800B0D8
:105990001022DAF8000018A91CF0E6F84FF0000B0E
:1059A000034618AD5B4542D15A4B9E42DBD10122E2
:1059B000564B1A7081250026DFF86CA1A4F506234A
:1059C000554AA3F550635B0952F8232004F01F01E8
:1059D000CA40D2073ED4514A52F82300C84010F0C2
:1059E00001002DD0002E08BF26468123A4F50724F0
:1059F000A4F2FF44B4FBF3F303EBC313E41A04F57E
:105A00000624013D04F55064D8D1029BD3B1CEB138
:105A1000349B1E6063E055F8040BCDE90623059125
:105A2000FFF724FF069A079B05990132ACE755F86A
:105A3000040B05930BF1010BFFF734FF059BB1E756
:105A4000029B13B96FF08B007DE7349B002E45D08D
:105A50001E6078E7B8F1000F02D00023C8F80030CC
:105A6000B9F1000F02D00023C9F800304FF0100B3D
:105A700000233A462146DAF80000CDF800B00CF0D9
:105A80002FFD70BBB8F1000F01D0C8F800B03B6823
:105A9000234A93422FD1B8F1000F11D0B9F1000F72
:105AA0000ED04B462146DAF8000018AA0CF06CFD27
:105AB000B8B9D9F80030D8F800209B1AC9F80030DE
:105AC000D7E90223DDE90310834208BF8A428CD163
:105AD000029B13B17B68012B15D0349B1C60002006
:105AE00031E7104B984206D01233984203D0133B53
:105AF0009842E5D025E72146DAF800000CF08AFD4F
:105B00000028DDD09EE76FF084001CE7D928002034
:105B1000006D0800007108002C1D0020401D0020B1
:105B2000105D175EFFDF00F0E80A00202DE9F04F5E
:105B300087B08246894698461646DDF840B02AB1BD
:105B4000002B4ED040F26C739A424DD8BBF1010F3E
:105B50004DD8002406F1100739460120059415F0B0
:105B6000BFFD0546002845D021463A461CF098FE68
:105B700005ABCDE9014300942B460122504649462E
:105B8000FFF7B6FE044680B110F18C0F08BF6FF02E
:105B90008D043A46002128461CF082FE284615F066
:105BA000B0FD204607B0BDE8F08F144BC5E902A94F
:105BB0002B60C5F804B02EB13246414605F1100005
:105BC0001CF047FE0E483B462A46059900680CF03B
:105BD000EFFB18B90598FFF749FEDAE76FF091047B
:105BE000D7E76FF08604DCE76FF09104D9E76FF038
:105BF0008504D6E76FF08C04D3E700BF105D175E15
:105C0000E80A00202DE9F0438DB08146DDE91478E3
:105C10000C4615461E469BB1B8F1000F05D16FF03A
:105C2000860420460DB0BDE8F083002FF7D0B7F111
:105C3000005FF4D3C3F1005303F500439F42EED855
:105C40001022002108A81CF02BFE002207AB0293B3
:105C500005AB019306AB21460093484608ABCDE95E
:105C60000522FFF745FE04460028DAD10599DEB18A
:105C7000A94203D80029D2D115B1D0E70029FBD021
:105C8000491BB14228BF3146069B0948C8F800109D
:105C900000913A46079900682B440CF021FC00283B
:105CA00018BF6FF09104BCE7A942E9D2B7E700BF83
:105CB000E80A002030B58DB00C46054610220021C0
:105CC00008A81CF0EDFD002207AB029305AB019381
:105CD00006AB21460093284608ABCDE90522FFF725
:105CE00007FE0446D0B9099B012B1AD0104B079927
:105CF00018680CF08FFCB8B9012207980D49A0F57F
:105D00000623A3F550635B0900F01F05AA4051F874
:105D100023506A4041F82320FFF7C4FD20460DB010
:105D200030BD6FF08404F9E76FF09104F6E700BF2F
:105D3000E80A00202C1D00202DE9F04389B00D4613
:105D400014461F46DDF8488020B96FF0860009B080
:105D5000BDE8F0830029F8D0002AF6D0B8F1000F92
:105D6000F3D0028802F44F43B3F5824F0CBF1346C1
:105D70000023DBB202D06FF08500E8E7122B01D0E0
:105D8000172BF8D122F0FF02B2F5E24F40D1428842
:105D9000C8F80020002A36D1E200C8F80020D8F860
:105DA0000020B2F5807FE6D1122B09BF384B0022CC
:105DB0001A681B6905EB040608BFD21800231846B1
:105DC000224412F801CD16F8011D0843B1EB0C0175
:105DD0000CBF4FF0FF3C4FF0000CB5420CEA030340
:105DE00043EA0103EDD10028AFD0002BADDA109BC0
:105DF0009C4249D82246294638461CF02AFD119B70
:105E000000201C60A3E70732B4EBD20FC7D09CE799
:105E10002A78042A99D1621ED2005208B2F5807FF6
:105E2000C8F80020A7D1122B05F1010318BF4FF0CD
:105E300000094FF0400205934FF000030ABF144ED3
:105E40004E46D6F80C90CDE90623FFF7B7FC0028A4
:105E50007FF47DAFCDF80C90D8F800300733DB0825
:105E6000029308AB13E903008DE80300059B96E855
:105E7000070014F0BBFF0646FFF7ACFC00287FF4D8
:105E800066AF002EB3D060E76FF089005FE700BF18
:105E9000403303002DE9F041069F0C4616460546A7
:105EA00010B309B302B9FBB96288B3EBD20F4FEA62
:105EB000D20819D34C22002128461CF0F1FC0D4BCE
:105EC00027F47E129A4212D1204615F0B4F8044607
:105ED00038B942463146281D1CF0BBFCC5F8248069
:105EE0002F602046BDE8F0816FF08604F9E76FF07F
:105EF0008504F6E70002C0032DE9F0410E46144682
:105F00000546002840D000293ED012B90020BDE847
:105F1000F08103681F4823F47E13834237D1AF6BAF
:105F2000E7B1C7F1100807F128004245284404D220
:105F30001CF08FFC3C44AC63E8E742461CF089FC53
:105F40001022103C3C19AA63E0D0284605F1280134
:105F500015F08DF80028DAD14644A863102C0CD92E
:105F6000671E27F00F073A463146284615F07FF89E
:105F70000028CCD1E41BC9D03E442246314605F16D
:105F800028001CF066FCD6E76FF08600BFE76FF0D4
:105F90008800BCE70002C0032DE9F04388461F4695
:105FA00005468BB070B169B163B10368234923F42E
:105FB0007E1088423ED113F47C1FC3F3054604D003
:105FC000102E03D96FF086042AE0102696422BD8B3
:105FD000FFF7F4FB044618BBAB6B05F12802CDE9D3
:105FE00001236B6A2A1DCDE904231023CDE9083073
:105FF00007AB1A460390069005F13C0901A904A8D5
:10600000CDF81C90FFF70EF90546FFF7E3FB0446B9
:106010006DB928B93246494640461CF01AFC3E602C
:1060200020460BB0BDE8F0836FF08904F8E76FF00D
:106030009204F5E76FF08504F2E700BF0002C003A9
:1060400007B56B46054A1068516803C36846FEF7FA
:10605000C1FA002003B05DF804FB00BFE433030085
:1060600013B50024064A6846536F43F00103536793
:1060700000948DF80440FEF705FA204602B010BDEA
:106080000040005030B58BB06C46154D0FCD0FC49D
:106090000FCD0FC495E8030084E80300114BD3F83B
:1060A0004C21120314D4D3F85041E4B28DF81940B6
:1060B000FEF732F8204480F308008DF818000A48F3
:1060C000FDF792F86846FDF74DFF00200BB030BD9C
:1060D000064B1C884FF6FF739C4208BF7824E5E707
:1060E000EC3303000080E00F00F049020001E00FF4
:1060F00030B5094D87B001AC0FCD0FC42B6801A896
:10610000236025238DF80530FEF70CF86420FEF798
:1061100047F8002007B030BD143403006FF00402CC
:10612000502110B50A480B4C12F0800FD3B21BBFA0
:1061300003F00F03043BA3181B1802F101020CBF6C
:1061400083F800131976402AEED1002010BD00BF5D
:1061500000ED00E000E100E038B501F023F904466D
:10616000E0B901F0E3F94FF4167343430C4803F52B
:10617000742303F23F23B3FBF0F30A4A0A49136086
:106180000A220D680948013A12F0FF0240F8043B68
:10619000F9D103EBC3022B4413440B60204638BDF6
:1061A00040420F00881D0020581D00205C1D00206B
:1061B000012208B5034B1A7015F02BFA024B186038
:1061C00008BD00BFDA280020841D0020F8B5144C5B
:1061D000237823B315F01DFA124B134D1B68134E91
:1061E000C01A012838BF0120114B124F18602B78BC
:1061F00056F8232046F82300111A3A680E48521A1E
:106200000A213A600932B2FBF1F20133DBB20260DB
:10621000B3FBF1F201FB12332B7000232370F8BDA6
:10622000DA280020841D0020DB2800205C1D0020CF
:10623000541D0020581D0020881D0020014B1868A7
:10624000704700BF881D002020234FF400220A4918
:1062500081F82C33094B5A66094A03F5405303F57C
:106260000050426702674FF48050C1F884014860D3
:1062700003445A67704700BF00E100E000900050FF
:10628000010000A0044B9A6DD20702D40028FAD175
:1062900070470120704700BF00C000500C4B10B584
:1062A0001C6FE20707D5012203F500531A67FFF7B9
:1062B0008DFF00F033FE14F000521CBF054B1A672F
:1062C000002CBEBF4FF00042024B1A6710BD00BF4A
:1062D00000C0005000E0005010B5044614F010FB60
:1062E000024B1C6014F010FB002010BD8C1D002020
:1062F00010B514F005FB034B1C6814F005FB204699
:1063000010BD00BF8C1D0020034B02221868002323
:106310008068194613F000BAE00B002030B514462F
:10632000054687B0104614F0B0FF63690246834209
:106330003CBFD4E903315B181B1A7BB10F492846D7
:1063400003910021CDE90131012304940093D4E9A4
:10635000001314F0B2F9002007B030BD01226276BC
:1063600094F82D20002AF6D084F835301321E36903
:10637000204698472046636A9847ECE71D63010072
:106380002DE9F04788B0044688461746994614F030
:10639000BEFA8246002F7AD0237E03F0FF02002B44
:1063A00000F0A280204614F070FF6669B04205D16B
:1063B000637ED4E903521544AD1B01E0F9D9851B76
:1063C000BD4228BF3D4614F0A2FA94F82D3006468F
:1063D000002B6DD12A46404661691CF03AFA636988
:1063E0002F462B44636121E0037803F0FD0111295E
:1063F0005BD1216B814205D1A3F111014B424B418D
:1064000084F83430013F6369216B01328B4203F120
:10641000010308BF2363636195426069E4D1D4E955
:106420000323216B1344994200D122630025D4E950
:10643000032361691344994208BF6261207A65763B
:10644000FDF7F6F8204614F020FF6369834232D14D
:10645000257694F82D30E568656103B12563204603
:10646000636A9847214B2A460393002302932369CA
:10647000216801930123207A00930494636814F047
:106480001CF9207AFDF7F4F8304614F046FA50462D
:10649000C9F8007014F041FAD9F80030002B0CBF95
:1064A0001B20002008B0BDE8F08708F8013BAAE7F0
:1064B0002F460022B0E70123207A23760DF11E013A
:1064C000FDF73EF99DF81E30002BDAD00DF11F01CB
:1064D000207AFDF70DF99DF81F100029D1D1224631
:1064E000207AFFF71BFFCCE71746D0E71D630100BA
:1064F000002808DB0123420900F01F0003FA00F026
:10650000014B43F82200704700E100E0002809DB5E
:106510000122430900F01F0002FA00F0024A603332
:1065200042F82300704700BF00E100E070B5044668
:106530000568FFF7DDFE844202D10020FFF7CCFEA4
:1065400095F93600FFF7E2FF95F93630002B0DDBA9
:1065500001215A0903F01F0301FA03F318492032FD
:1065600041F82230BFF34F8FBFF36F8F95F937009B
:10657000FFF7CCFF95F93730002B0DDB01215A09CD
:1065800003F01F0301FA03F30D49203241F82230D2
:10659000BFF34F8FBFF36F8F287AFDF789F8287A02
:1065A000FCF7ECFFFCF7C8FF00232846C4E90033E2
:1065B000C4E90433A360AB6ABDE87040184700BF6C
:1065C00000E100E02DE9F0410C461546064686B094
:1065D0004022002120461F461CF062F995E8030086
:1065E00000232A692376EB6884E80300C4E90423C6
:1065F0002A7DE36084F82C20AA7D2363012384F89C
:10660000343084F835300C9B84F82D2023620D9BA8
:10661000E76163620E9BA3622B7A84F836306B7A53
:1066200084F837302D4B346073602D4BB3602D4BA5
:1066300033612D4B73612D4BF360FCF7C5FF38B10F
:106640002B4B984204D01024204606B0BDE8F081C0
:10665000002104F10800FCF73FFF07460028F2D1B3
:106660004FF00108234B3362234B84F83C80B36125
:10667000224BF3619DF8403084F8390084F83B30B8
:106680009DF83C30204684F83A30697D84F83880A3
:1066900014F00BFE95F90900FFF738FF95F9090092
:1066A000FFF726FF164B0494CDE902732369CDE969
:1066B00000836368E2682168207A13F0FEFF0446D5
:1066C0000028C0D195F90800FFF720FF95F90800D0
:1066D000FFF70EFF3046FFF7FFFDB5E7FBB2020004
:1066E0008163010079B202007FB202002D650100D2
:1066F000038000F04FB20200ABB2020085B202008C
:106700001D6301002DE9F04101271C46594B86B05D
:106710000293594B0C9D0193584B904600930A46A7
:10672000CDE903772946564BFFF74CFF0646002874
:106730007BD1236839462B6463683A206B64637AA3
:1067400085F84930237A85F84830E37A85F84B306C
:10675000A37A85F84A30637B85F84D30237B85F832
:106760004C30E37B85F84F30A37B85F84E30FDF746
:10677000EFFA3B460422617A207AFDF7C1FF3B46DF
:106780000222E17AA07AFDF7BBFF39466068FDF787
:10679000DFFA88F8006041462068FEF7C5F9142248
:1067A000637C5B0103F1A04303F57033C3F81C263F
:1067B000617A227A42EA0142C3F83426E17AA27A67
:1067C00042EA0142C3F82C2685F8506098F8193047
:1067D000032B4DD8DFE803F01A022D4701230027D1
:1067E00085F8503000230222617B207BFDF788FF73
:1067F000637B227B617C42EA0342224B49015A506F
:106800000422236803F58053DA65AFB9237A2A6C32
:1068100085F84830637A052185F84930D36C2068C3
:1068200043F00403D36414F0ABF8304606B0BDE87F
:10683000F081022385F8503000230422E17BA07B05
:10684000FDF75EFF022741F21C61627C0E4B03EBF9
:1068500042104750E07BA17BB13241EA004103EB9B
:1068600042139960D2E70323012785F85030B9E736
:106870002326DAE725B4020019B40200B1B40200FD
:10688000A5B4020024D6035000C00350BFF35F8FAD
:10689000074B5A6A22F480325A62D3F8942022F0CD
:1068A0000102C3F89420BFF34F8FBFF36F8F70477F
:1068B00000ED00E070B52648264CFFF7E7FF844264
:1068C00008BF4FF08043244A18BF20F01F03D2F8BE
:1068D000C01018BF203B21F0FF0141F0A001B3F12F
:1068E000005FC2F8C0100CD31C4D1D4E296843F048
:1068F0000103C2F898100131C2F89C60C2F8A030C0
:106900002960844210D01548164B0268124923F0C2
:106910001F0343F00303C1F89820C1F89C30124BC9
:106920000132C1F8A0300260BFF35F8F05220A4B2D
:10693000C3F894205A6A42F480325A62BFF34F8FF0
:10694000BFF36F8FBFF34F8FBFF36F8F70BD00BF6B
:10695000600D0020380F002000ED00E0901D0020A9
:1069600003000020570F0020E1FFFF3F10B5144641
:10697000FFF78CFF1F2C24D91C4A1D4CD2F8C030C5
:1069800023F47F4343F48073C2F8C030C2061CBFB7
:1069900020F01F002030CB06144A236818BF21F0D6
:1069A0001F0120F01F0021F01F01C2F8983040F0B5
:1069B000030041F003010133C2F89C00C2F8A010AB
:1069C0002360BFF35F8F0522084BC3F894205A6AF7
:1069D00042F480325A62BFF34F8FBFF36F8FBFF321
:1069E0004F8FBFF36F8F002010BD00BF00ED00E0A0
:1069F000901D0020BFF34F8F0549064BCA6802F473
:106A0000E0621343CB60BFF34F8F00BFFDE700BFD1
:106A100000ED00E00400FA05034B1B78002B14BFC7
:106A200001200220704700BFE42800200329F8B5A8
:106A300098BF124B05460E468CBF00245C5C0328B1
:106A400005D8DFE800F002080B0E44F002040C4BFE
:106A50001F684FB9F8BD44F00804F8E744F020047B
:106A6000F5E744F08004F2E77B681A68144203D02B
:106A7000314628465B6898473F68EAE728340300B8
:106A8000B81D002038B5104D2B78ABB10F4C2378D2
:106A90001BB100F045FB00232370002000F062FBD7
:106AA0000B4C50B100F068FB0023012120782B70C3
:106AB000FFF7BCFF0123237038BD0122054B1A707C
:106AC0002278054B1A70F7E7E3280020DE28002023
:106AD000DC280020E2280020E928002010B513F06F
:106AE0000FFF064B04461B781BB1BDE8104013F0A6
:106AF0000BBFFFF7C7FF2046F7E700BFDD280020E8
:106B0000002814BF0121FF21074A13780B4413709A
:106B100008D0064B1B78012B04D9054B1B780BB909
:106B2000FFF7B0BF704700BFE4280020DC2800203A
:106B3000E228002070B513F0E3FE114E05463378CD
:106B40008BB900F02FFC044620B1284613F0DCFE80
:106B5000204670BD0B4813F0EDFC0B4B1C6000F0A1
:106B6000E5FC0A4B186000F01FFA14F00DFD084B0D
:106B70000024186001232846337013F0C5FEE7E7B0
:106B8000DF280020B81D0020C01D0020BC1D0020F3
:106B9000B41D002000292DE9F34114BF0121FF217C
:106BA000254A00F1FF30135C0B4413543AD0234EB6
:106BB0003278012A36D9FFF72FFF0128044634D84E
:106BC0001F4F13F09DFE3B781BB31E4D2B781BB956
:106BD00001222A701C4A1370DFF8708098F8003088
:106BE00033B1019000F09CFA0023019888F800303E
:106BF00013F08AFE012000F0B5FA13F081FE2B7825
:106C00002BB1019000F0B8FA002301982B700023FB
:106C10003B7013F079FE3078A04203D02146FFF795
:106C200005FF347002B0BDE8F081032AF3D10228D9
:106C3000F1D114F0ADFCEEE7E4280020DC280020C0
:106C4000E3280020DD280020E2280020DE280020A4
:106C500010B5044613F054FE002C14BF0121FF218F
:106C6000064A13780B44DBB21370B3FA83F3BDE822
:106C70001040034A5B09137013F046BEE72800205A
:106C8000E628002068B513F03BFE094B06461B784A
:106C9000012B04D813F038FE0025284668BD054BAB
:106CA0001D6800F09DFA0544304613F02DFEF4E710
:106CB000DC280020C01D002038B54160044613F0D8
:106CC0001FFE05462146044813F037FC2846BDE860
:106CD000384013F019BE00BFB81D0020054B1B68DB
:106CE0005843054B00F5742000F23F20B0FBF3F051
:106CF000704700BFBC1D002040420F002DE9FF4738
:106D0000EFF3108672B600E000BF13F0A1FB00287D
:106D100000F09B806C4D6D4F2B7823B10020FFF766
:106D2000EFFE00232B70FFF777FE0446002800F0EB
:106D30009380841EE4B2012C40F29680FFF76CFE33
:106D40000128804604D9624B1B780BB914F01AFC59
:106D5000604CDFF8A0912078DFF89CA140450AD074
:106D6000002389F800309AF8003013B94146FFF744
:106D70005DFE84F8008099F800303BB12378022B47
:106D800004D1002389F800301BF086FAB8F1010F16
:106D90000FD9DFF83C8198F8003053B94E4B1B787F
:106DA00023B900F0B7F901224C4B1A70012388F87F
:106DB0000030207800F0FEF99AF8003013B1484B0B
:106DC0001B78237000E000BF06B962B6EFF31086AF
:106DD00072B6444B1A7852B100221A70404B207898
:106DE0001B78984203D101212170FFF71FFE38461E
:106DF00000F012FB13F037FB804600288CD1344F93
:106E000089F800003B789BB1DFF8D0908AF8000049
:106E100099F800301BB100F083F989F80080002058
:106E200000F0A0F9002845D000F0A6F900233B703F
:106E30002B7823B10020FFF763FE00232B70002185
:106E40002078FFF7F3FD0023237000E000BF06B9B0
:106E500062B604B0BDE8F0872B78002B3FF46EAF2C
:106E6000FFF74EFE2C7069E7002003A900F018FB25
:106E7000044600287FF462AF1B4B039A1B689A42BA
:106E800005D80120FFF73CFE01232B7056E7174B76
:106E9000D3F8008000F0A4F9039940448842F0D26E
:106EA0000223091ACDE9004338462346104A14F05C
:106EB00070FB43E7012000F07DF906B962B6EFF3FD
:106EC000108672B6ABE700BFE8280020941D0020B2
:106ED000E3280020DC280020E7280020DE2800200E
:106EE000E9280020E1280020B41D0020C01D00205A
:106EF000DD6A0100E6280020E228002010B513F02A
:106F0000FFFC0022044B1C781A7013F0FDFC00F00B
:106F1000F5FB2043C0B210BDE028002010B5094B9E
:106F20001B786BB1084C237853B100F025F900238E
:106F3000064A237013700123054A1370054A137023
:106F400010BD00BFDC280020E2280020E32800203C
:106F5000E0280020E128002073B5114E0446337864
:106F6000834212D000238DF8043080B102238DF8C3
:106F7000053001A8FDF736FA0A4D402054B1FFF75D
:106F8000ADFE2B68181A2860347002B070BD8DF801
:106F90000500EEE7FFF7A2FE2B681844F3E700BFF9
:106FA000470D0020C81D002073B5002401A88DF8EE
:106FB0000440FDF7C9FA20464FF40024FFF7CCFF48
:106FC0003149324B0A6F02F007021A60D1F82031C2
:106FD000D1F8240101F580514C664FF400344C6621
:106FE00001F598318969032A00F0070001F00201D8
:106FF00041D003F003039C1E63426341022808BF93
:1070000043F001032248234D037061B31E4A3BB98C
:10701000D2F8003103F00303591E4B424B41037079
:10702000D2F8003103F00303022B26D0032B27D024
:10703000012B18D1FCF7D2F8A8B1174B411EDC6820
:107040000023024608461946C4F30B04134E0134CC
:1070500004EB8404E4FB060112F018F8FFF73EFE8F
:107060002B68184428606420FFF738FE2B6818440A
:10707000286002B070BD0123C0E7FCF7C9F8DBE768
:1070800013F050FAD8E700BF00800050C41D002064
:10709000EC280020C81D002000C0015040420F0015
:1070A000074B1A7852B100221A70064A136F23F068
:1070B000070343F001031367FCF77AB8704700BF7A
:1070C000EA280020008000500E4B10B51B7883B1D9
:1070D000022014F0BFFA60B100F014FA48B10A4B74
:1070E0009A6DD20306D5DB6D9B0703D50122074BB2
:1070F0009A6210BD0124064B1C70FFF759F8034B30
:107100009C62F6E7EC28002000C0005000D0005040
:10711000EB2800200122014B1A707047EA2800205A
:1071200038B50C4B1B786BB10B4C23787BB90B4BF0
:107130000B4D9A6D12F4803F05D0DB6D9B0702D595
:107140000123AB6238BDFFF733F80123AB620023A4
:107150002370F7E7EC280020EB28002000C0005047
:1071600000D00050034B1B780BB1FFF78BB8012008
:10717000704700BFEC28002008B513F0D5FB094A82
:107180000949136F096823F007030B431367074B83
:107190001B7813B10122064B9A62BDE80840FCF748
:1071A00007B800BF00800050C41D0020EC2800205C
:1071B00000E0005002280AD003280BD001280CD18F
:1071C000064A136923F00403136130BF704700209F
:1071D000FDF714B90020FDF735B9704700ED00E068
:1071E00008B5054B187818B1FFF728F800EBD00068
:1071F000024B1B68184408BDEC280020C81D002065
:107200000122014B1A707047EC28002010B514F0D1
:107210000EFA0A4C0A4B19682368C31A01B10BB95C
:10722000206010BD4A699A423ABF9B1A0022D21AC6
:107230004A6128BF00238968F0E700BFCC1D002009
:10724000D81D0020C38870B504460D463BB9FFF732
:1072500019FD8542064602D214F087F935460F49DA
:1072600065610B68ABB90C60A36011E0AD1A9A6858
:10727000184665612AB113465A69AA42F6D950B137
:107280001A4613468460A36013B15969491B5961BA
:1072900070BD0020F0E70C60F5E700BFD81D0020AE
:1072A00038B5134D2B685B6993B1124A02201468FC
:1072B0001C4414F0C3F9204600F06EFA00230E4976
:1072C0002A680B70D088800709D501230B7038BD60
:1072D000022014F0B3F9022000F0A8FAEEE7926859
:1072E000002AF4D050690344012BEBD9EFE700BF2B
:1072F000D81D0020CC1D0020EE28002070B51646B9
:107300009DF81420C0E903360271049ABDF81830C4
:107310000260002204460D468260C38006BB14F062
:1073200086F92844A0613DB9E368656113B1204640
:107330002168984796B1354613F0E2FA0646FFF702
:1073400065FF29462046FFF77DFF074B1B68A342D8
:1073500001D1FFF7A5FF304613F0D6FA002070BD2B
:1073600014F065F93044DDE7D81D002000220C49F7
:107370000B687BB183420AD183687AB193608368DA
:107380001BB15A6941690A445A61002070471A4684
:107390009B68EEE70028EFD0022070470B60EEE715
:1073A000D81D002070B513F0B2FA144E054634789B
:1073B000FCB9134B1C60134B1C60134B1C8000F07A
:1073C000A9F9012014F03AF914F053F90F4B0246D1
:1073D000186020B9284613F0A0FA232070BD234678
:1073E00040F2E7310A4811F051FE0A4B18600123C0
:1073F0003370284613F091FA0020EFE7ED280020C3
:10740000D81D0020CC1D002060280020D41D0020A5
:1074100018FCFFFFD01D00202DE9F0410546F8B112
:1074200013F06EFA0F4F0646FFF7F0FE2846D7F826
:107430000080FFF79BFF044628B1304613F064FA42
:107440002046BDE8F081A8453B6803D123B1FFF792
:1074500027FFF2E7002BF0D1022000F0CFF9ECE794
:107460002224EDE7D81D002038B50C46054698B11A
:1074700091B100230B7013F04AFA0121074B1B68EE
:107480000BB122781AB113F048FA002038BDAB4294
:1074900014BF9B682170F3E72220F7E7D81D002076
:1074A0002DE9F0410746884613F031FA00260546DB
:1074B000124B1C6824B9284613F02FFA1B2016E043
:1074C00063691E44E388BB4215D114F0B0F80C4C3C
:1074D0002368C01AB0420CD214F0A9F822683244D2
:1074E000121A2846C8F8002013F017FA0020BDE849
:1074F000F0810022F5E7A468DCE700BFD81D00207A
:10750000CC1D002008B5074B187848B114F081F85D
:10751000054B1B689B69C01A02288CBF0020012004
:1075200008BD00BFEE280020D81D0020014B1868C0
:10753000704700BFD41D00200C4B70B51B680D4672
:10754000834211D340F2E73100248C462146084B98
:107550004FF47A721E680023E0FB06C1604611F00A
:1075600095FD2860204670BD2120FCE7D01D00203D
:10757000D41D00200F4B10B51A689AB14FF47A71E0
:10758000531E1342A0FB01010ED1B2FA82F2C2F1E6
:107590001F04531CD243E04001FA03F3184321FABD
:1075A00002F20243104610BD002311F06FFD0246A7
:1075B000F8E700BFD41D0020C2072DE9F0470446BC
:1075C0000BD54B4A138801339BB21380FFF71EFE85
:1075D000484B1B680BB1FFF763FEA30740F18580A2
:1075E00013F095F94FF0000980464D46FFF70EFE67
:1075F0004F46404E34680CB163698BB100223E4B5C
:10760000012D1A7003D1B9F1020F08BF1D70002CB3
:107610005BD0FFF745FE4046BDE8F04713F07DB96B
:1076200023461A792179914288BF1C469B6813B181
:107630005A69002AF5D0404613F06FF9D4F810903B
:10764000B9F1000F45D013F0F2FFA269A0EB0208D8
:107650004FEAE873C14577EB03033BDA2369134430
:10766000A36101232269CAB1C3B9A38BB9EB08088E
:1076700033B1E28B13449BB2B3F57A7F1CD2E38320
:1076800013F045F9814641462046FFF7DBFDA3692B
:10769000226948461344A36113F03FF9E368B4F844
:1076A0000690013513B120462168984713F02FF951
:1076B0008046FFF7ABFD9DE7A3F57A73E383A369EB
:1076C00018F1FF38013BA361DAE7022000F096F8D9
:1076D000A1E7C84613F01BF982462046FFF746FE95
:1076E000504613F01AF90023BCE7BDE8F08700BF4D
:1076F00060280020D81D0020EF28002010B513F0CE
:1077000006F9034B1C7813F008F9204610BD00BFA2
:10771000EF2800201FB500241C4B012118689A880F
:107720000290D3F806009B7A00903E20ADF80C2022
:107730008DF80430FCF70CFB02A88DF808408DF89A
:107740000C40FDF753F9694601208DF80040FDF724
:1077500011F94FF0B04240F2FF31936923F47F7387
:1077600023F0030393610A4B5961936A13F00803F2
:10777000FBD113620120FDF717F94FF48052054B3E
:10778000C3F880211A6004B010BD00BF2C34030080
:107790000020005800E100E010B5044613F0B0F8F6
:1077A0004FF0B042936A1907FCD4136A116C526906
:1077B000520604D4CA1A032A01D899420ED1E21AF9
:1077C000022A98BFDC1CB4F1FF3F38BF013C4FF0E8
:1077D000B0431C649A6942F040029A6113F094F835
:1077E000054A13783BB14FF0B041CB6B43F0020335
:1077F000CB630023137010BD480D0020820700F0FA
:1078000001030AD50121084A43F0400311704FF0EB
:10781000B041CA6B22F00302CA634FF0B0418A69DB
:1078200022EA03038B617047480D0020830742BFA3
:107830004022014B5A6170470010005810B513F0F8
:1078400066F84FF0B04304465B695A06074A03F0F6
:10785000010003F0510348BF40F002005361FFF7FD
:10786000ABFE2046BDE8104013F057B8002000588A
:1078700010B50446FBF79CFC0C4BA0F57A729A42BB
:1078800012D84FF47A73B0FBF3F05C43084BB3FBB0
:10789000F0F0B4FBF0F0022806D9BDE81040032355
:1078A000B0FBF3F0FAF74CBC10BD00BFFFC99A3B28
:1078B00040420F00024A0349034800F0A1BC00BF48
:1078C0003834030078340300503403000A4619B1F9
:1078D000024B00211B681847704700BF0C0B0020AB
:1078E0000E4B0340B3F1607F06D1B1F5885F14BF42
:1078F0006FF0860000207047B3F1707F0BD101F468
:10790000E043B3F5005F06D111F4E06F0CBF6FF0F8
:107910008600002070476FF0860070470000C07F2F
:107920008A42F8B507460D4600F021819B4822F0B7
:10793000FF01814210D09A4C22F4FF7323F001031F
:10794000A34209D0974B994206D0974922F47F73FE
:1079500023F003038B4223D125F0FF01814210D095
:107960008F4825F4FF7323F00103834209D08D4B28
:10797000994206D08C4925F47F7323F003038B4290
:107980000ED115F0FF030BD0884943F000738B42F2
:1079900006D16A4032F0FF030CBF01200020F8BD81
:1079A00005F0FE43B3F1A06F17D102F0FE43B3F12F
:1079B000A06F40F0DE8082EA050333F47E1340F0CE
:1079C000D88015F40040EAD0C5F30540C2F3054263
:1079D00090428CBF00200120E1E7B3F1407F40F0EE
:1079E000B38002F0FE43B3F1407F40F0C28082EAF0
:1079F000050333F47E1640F0BC8039462846FFF775
:107A00006FFF002840F0B580694C12F47C1C04EA3A
:107A1000020438D0B4F1607FC2F3054C7AD16549D5
:107A2000D3B243F000738B4278D003F17E41043926
:107A3000012975D960498B4276D001318B4275D0CE
:107A400001318B4274D001318B426BD001318B42BA
:107A50006AD001318B4269D003318B4264D001314D
:107A60008B4263D001318B4262D001318B4208BF1F
:107A7000402615F47C1FC5F305435BD1664514BF52
:107A8000002001208BE7B4F1607F2BD14949D3B2AC
:107A900043F000738B426ED003F17E41043901291B
:107AA0006CD945498B426FD001318B426FD0013187
:107AB0008B426FD001318B4263D001318B4263D056
:107AC00001318B4263D003318B425DD001318B4257
:107AD0005DD001318B425DD001318B4208BF4FF048
